:100000000C942A000C9447000C9447000C94470071
:100010000C9419120C94E2110C9447000C944700B4
:100020000C9447000C9447000C9447000C94470034
:100030000C9447000C9447000C9447000C94470024
:100040000C9447000C9447000C9447000C94470014
:100050000C94470011241FBECFE5D8E0DEBFCDBF12
:1000600011E0A0E6B0E0EAE4F3E302C005900D92EF
:10007000AC37B107D9F711E0ACE7B1E001C01D9290
:10008000AF3BB107E1F70E94F4180C94A3190C944C
:100090000000EF92FF920F931F937B018C0120E0F1
:1000A00030E040E05FE40E943A0A88238CF0C80107
:1000B000B70120E030E040E05FE40E9436080E9493
:1000C0006A0A9B01AC01205030404040504806C0B5
:1000D000C801B7010E946A0A9B01AC01B901CA01BB
:1000E0001F910F91FF90EF900895AEE5B0E0EBE720
:1000F000F0E00C946C19A8E04E010894811C911C4E
:10010000F4016A2E11926A94E9F729833A834B83AA
:100110005C836D837E838F839887CE010996FC0173
:100120001192AA95E9F7A986BA86CB86DC86ED8678
:10013000FE860F87188B29843A844B845C84ED8477
:10014000FE840F85188969807A808B809C806DA6DB
:100150007EA68FA698AA6D807E808F809884E114F9
:10016000F1040105110509F0B3C36214730484049A
:10017000950408F03DC100E0201600E0300601E0E3
:10018000400600E0500688F41FEF211631044104B8
:10019000510439F030F048E0E42EF12C012D112DFE
:1001A00018C0EE24FF24870114C020E0221620E0AE
:1001B000320620E0420621E0520630F038E1E32E1C
:1001C000F12C012D112D05C020E1E22EF12C012D85
:1001D000112DD201C1010E2C04C0B695A79597959B
:1001E00087950A94D2F788599F4FDC012C9180E2C1
:1001F00090E0A0E0B0E08E199F09A00BB10B7C014C
:100200008D01E21AF10801091109E114F104010557
:100210001105A1F10E2C04C0220C331C441C551CEA
:100220000A94D2F7A40193010E2C04C0220F331FAD
:10023000441F551F0A94D2F780E290E08E199F095F
:100240006DA47EA48FA498A804C0969487947794F4
:1002500067948A95D2F7622A732A842A952AADA4D4
:10026000BEA4CFA4D8A804C0AA0CBB1CCC1CDD1C07
:10027000EA94D2F7ADA6BEA6CFA6D8AA6201EE2414
:10028000FF24CDAADEAAEFAAF8AE92018101207068
:10029000307009AF1AAF2BAF3CAFC401B301A70157
:1002A00096010E944A197B018C01C401B3012DA95A
:1002B0003EA94FA958AD0E944A19C901DA013C0173
:1002C0004D01C401B30129AD3AAD4BAD5CAD0E9407
:1002D0002B199B01AC018701FF24EE24ADA4BEA421
:1002E000CFA4D8A8C601AA27BB2757016801A82A0E
:1002F000B92ACA2ADB2AA216B306C406D506E0F438
:1003000008946108710881089108A20CB31CC41CF0
:10031000D51CA214B304C404D50470F0A216B3060D
:10032000C406D50648F4089461087108810891084C
:10033000A20CB31CC41CD51CA21AB30AC40AD50A49
:10034000C601B5012DA93EA94FA958AD0E944A1971
:100350007B018C01C601B5012DA93EA94FA958AD5D
:100360000E944A19C901DA015C016D01C601B5019B
:1003700029AD3AAD4BAD5CAD0E942B199B01AC0190
:100380008701FF24EE248DA59EA5AFA5B8A9A07076
:10039000B070E82AF92A0A2B1B2BE216F306040791
:1003A0001507C0F40894A108B108C108D108E20CEF
:1003B000F31C041D151DE214F3040405150550F08B
:1003C000E216F3060407150728F40894A108B108FB
:1003D000C108D108D3019927882786017501E82A29
:1003E000F92A0A2B1B2BE9AAFAAA0BAB1CABCFC428
:1003F000211431044104510471F461E070E080E0A3
:1004000090E020E030E040E050E00E944A19C9014D
:10041000DA011C012D0100E0201600E0300601E0A9
:10042000400600E0500688F41FEF21163104410415
:10043000510431F028F048E050E060E070E017C06F
:1004400040E050E060E070E012C020E0221620E0C2
:10045000320620E0420621E0520628F048E150E052
:1004600060E070E004C040E150E060E070E0D20184
:10047000C101042E04C0B695A795979587950A9457
:10048000D2F788599F4FDC012C91E0E2EE2EF12C3F
:10049000012D112DD801C701841B950BA60BB70B9D
:1004A000821B9109A109B1090097A105B10561F469
:1004B00064015301A218B308C408D50831E0632EC3
:1004C000712C812C912C1EC16F968FAF6F97082EC7
:1004D00004C0220C331C441C551C0A94D2F7EE2D88
:1004E000E81B640153010E2E04C0D694C794B79440
:1004F000A7940A94D2F7A40193016F960FAC6F975B
:1005000004C0220F331F441F551F0A94D2F76DA455
:100510007EA48FA498A80E2E04C0969487947794F6
:1005200067940A94D2F784017301E22AF32A042B18
:10053000152BE9A6FAA60BA71CA73201882499243B
:10054000920181012070307021960CAF1DAF2EAF4B
:100550003FAF2197C601B501A40193010E944A193A
:100560007B018C01C601B501A40193010E944A19C7
:10057000C901DA0125968CAF9DAFAEAFBFAF25970D
:10058000BC01CD0121962CAD3DAD4EAD5FAD2197A7
:100590000E942B199B01AC018701FF24EE24A9A422
:1005A000BAA4CBA4DCA4C601AA27BB275C016D01B9
:1005B000AE28BF28C02AD12AA216B306C406D50683
:1005C00060F525966CAD7DAD8EAD9FAD25976150E4
:1005D00070408040904025966CAF7DAF8EAF9FAF4E
:1005E0002597A20CB31CC41CD51CA214B304C404CC
:1005F000D50498F0A216B306C406D50670F461506F
:1006000070408040904025966CAF7DAF8EAF9FAF1D
:100610002597A20CB31CC41CD51CA21AB30AC40A89
:10062000D50AC601B501A40193010E944A197B01B4
:100630008C01C601B501A40193010E944A19C901A8
:10064000DA013C014D01C401B30121962CAD3DAD51
:100650004EAD5FAD21970E942B199B01AC01870124
:10066000FF24EE2489A59AA5ABA5BCA5A070B07007
:1006700057016801A82AB92ACA2ADB2AA216B3069A
:10068000C406D506E0F40894610871088108910851
:10069000A20CB31CC41CD51CA214B304C404D504FE
:1006A00070F0A216B306C406D50648F40894610893
:1006B000710881089108A20CB31CC41CD51C8DA51F
:1006C0009EA5AFA5B8A96F960FAC6F9704C0880F11
:1006D000991FAA1FBB1F0A94D2F78DA79EA7AFA789
:1006E000B8ABA21AB30AC40AD50A2596ECACFDAC85
:1006F0000EAD1FAD2597D70199278827682A792A3B
:100700008A2A9B2A82012227332729960CAF1DAF04
:100710002EAF3FAF2997A2019101407050702D96E6
:100720002CAF3DAF4EAF5FAF2D97C601B5012996F7
:100730002CAD3DAD4EAD5FAD29970E944A197B01AE
:100740008C01C601B50129962CAD3DAD4EAD5FAD16
:1007500029970E944A19C901DA0161968CAF9DAFB1
:10076000AEAFBFAF6197BC01CD012D962CAD3DADB5
:100770004EAD5FAD2D970E942B199B01AC018701F7
:10078000FF24EE24ADA4BEA4CFA4D8A8C601AA27F6
:10079000BB2757016801A82AB92ACA2ADB2AA21650
:1007A000B306C406D50660F561966CAD7DAD8EAD21
:1007B0009FAD6197615070408040904061966CAFF2
:1007C0007DAF8EAF9FAF6197A20CB31CC41CD51C2C
:1007D000A214B304C404D50498F0A216B306C40648
:1007E000D50670F4615070408040904061966CAFC7
:1007F0007DAF8EAF9FAF6197A20CB31CC41CD51CFC
:10080000A21AB30AC40AD50AC601B50129962CADAD
:100810003DAD4EAD5FAD29970E944A197B018C0119
:10082000C601B50129962CAD3DAD4EAD5FAD299702
:100830000E944A19C901DA015C016D01C601B501C6
:100840002D962CAD3DAD4EAD5FAD2D970E942B1971
:100850009B01AC018701FF24EE248DA59EA5AFA5C9
:10086000B8A9A070B070E82AF92A0A2B1B2BE2164F
:10087000F30604071507C0F40894A108B108C108DD
:10088000D108E20CF31C041D151DE214F304040549
:10089000150550F0E216F3060407150728F408942E
:1008A000A108B108C108D1086196ECACFDAC0EAD51
:1008B0001FAD6197D7019927882796018501082BDD
:1008C000192B2A2B3B2B09AB1AAB2BAB3CAB62C2CF
:1008D0006E147F048006910608F451C220E0E216EF
:1008E00020E0F20621E0020720E0120788F43FEF43
:1008F000E316F1040105110531F028F048E050E05D
:1009000060E070E017C040E050E060E070E012C0CE
:1009100040E0E41640E0F40640E0040741E014073C
:1009200028F048E150E060E070E004C040E150E0B1
:1009300060E070E0D801C701042E04C0B695A79509
:10094000979587950A94D2F788599F4FDC012C918F
:1009500030E2A32EB12CC12CD12CD601C501841BB1
:10096000950BA60BB70B821B9109A109B109009742
:10097000A105B10589F4E614F7040805190508F482
:10098000F2C16DA47EA48FA498A862147304840499
:10099000950408F0E8C1F3C16E968FAF6E97082EEC
:1009A00004C0EE0CFF1C001F111F0A94D2F76A2D21
:1009B000681BD201C101062E04C0B695A795979574
:1009C00087950A94D2F75C016D01AE28BF28C02A32
:1009D000D12AADA2BEA2CFA2D8A6720161016E96A5
:1009E0000FAC6E9704C0CC0CDD1CEE1CFF1C0A94EF
:1009F000D2F7C9A2DAA2EBA2FCA264015301062E2F
:100A000004C0D694C794B794A7940A94D2F7D4019B
:100A1000C3016E960FAC6E9704C0880F991FAA1F72
:100A2000BB1F0A94D2F7EDA4FEA40FA518A904C019
:100A300016950795F794E7946A95D2F73701480120
:100A4000682A792A8A2A9B2A6D8E7E8E8F8E98A29A
:100A5000EDA0FEA00FA118A53801882499249801C3
:100A600087012070307065960CAF1DAF2EAF3FAF81
:100A70006597C601B501A40193010E944A197B0143
:100A80008C01C601B501A40193010E944A19C90154
:100A9000DA011C012D01C201B10165962CAD3DADFD
:100AA0004EAD5FAD65970E942B199B01AC0187018C
:100AB000FF24EE24AD8CBE8CCF8CD8A0C601AA2713
:100AC000BB2757016801A82AB92ACA2ADB2AA2161D
:100AD000B306C406D50600F508942108310841087C
:100AE0005108EDA0FEA00FA118A5AE0CBF1CC01EA2
:100AF000D11EAE14BF04C006D10670F0A216B30614
:100B0000C406D50648F40894210831084108510864
:100B1000AE0CBF1CC01ED11EA21AB30AC40AD50A4D
:100B2000C601B501A40193010E944A197B018C0101
:100B3000C601B501A40193010E944A19C901DA0155
:100B40003C014D01C401B30165962CAD3DAD4EADE8
:100B50005FAD65970E942B199B01AC018701FF24B3
:100B6000EE248D8D9E8DAF8DB8A1A070B070570111
:100B70006801A82AB92ACA2ADB2AA216B306C40623
:100B8000D50600F5089461087108810891086DA1E7
:100B90007EA18FA198A5A60EB71EC81ED91EA616A7
:100BA000B706C806D90670F0A216B306C406D50665
:100BB00048F408946108710881089108A60EB71ED0
:100BC000C81ED91ED601C501821B930BA40BB50B01
:100BD000898F9A8FAB8FBC8FD101992788276401A9
:100BE0005301A82AB92ACA2ADB2AA9AABAAACBAAD7
:100BF000DCAA860175012FEF3FEF40E050E0E222D2
:100C0000F32204231523A601662777276D964CAFA0
:100C10005DAF6EAF7FAF6D97A9A0BAA0CBA0DCA0EF
:100C20006FEF7FEF80E090E0A622B722C822D922A2
:100C300089A19AA1ABA1BCA11D0144245524C801DE
:100C4000B701A60195010E942B1969966CAF7DAF83
:100C50008EAF9FAF6997C801B701A20191010E94B1
:100C60002B193B014C016D966CAD7DAD8EAD9FADEA
:100C70006D97A60195010E942B197B018C016D9641
:100C80006CAD7DAD8EAD9FAD6D97A20191010E94BF
:100C90002B195B016C01A8019701260D371D481D1A
:100CA000591D69966CAC7DAC8EAC9FAC6997C40144
:100CB000AA27BB27280F391F4A1F5B1F2E153F0588
:100CC0004007510748F4E12CF12C61E0062F112D6B
:100CD000AE0CBF1CC01ED11ECA01AA27BB27BC0177
:100CE000CD016A0D7B1D8C1D9D1D698C7A8C8B8CB2
:100CF0009C8C661677068806990640F1661577057E
:100D00008805990509F043C0D90199278827699674
:100D10002CAD3DAD4EAD5FAD699740705070820F08
:100D2000931FA41FB51F2DA53EA54FA558A96E96CC
:100D30000FAC6E9704C0220F331F441F551F0A9437
:100D4000D2F7281739074A075B0708F509A91AA936
:100D50002BA93CA9015010402040304009AB1AABF0
:100D60002BAB3CAB14C066247724430121E030E078
:100D700040E050E029AB3AAB4BAB5CAB0BC0662418
:100D80007724430119AA1AAA1BAA1CAA03C0662425
:100D900077244301FE01719688E0DF011D928A9558
:100DA000E9F7A9A8BAA8CBA8DCA8A98ABA8ACB8AED
:100DB000DC8A6D8A7E8A8F8A988E29A93A894B8926
:100DC0005C89662D7E898F89988DC25ADF4FE2E15A
:100DD0000C948819A0E0B0E0E0EFF6E00C946C19F8
:100DE000DC012B01FA019C91923008F439C1EB012E
:100DF0008881823008F433C1943069F4843009F07A
:100E00002FC111969C9111978981981709F428C1D7
:100E1000A0E6B0E025C1843009F421C18230A9F4F4
:100E2000923009F01DC19A01AD0188E0EA010990F4
:100E3000AE01E90109929E018150C1F7E201898169
:100E400011969C918923818308C1923009F407C1CE
:100E500012962D903C901397EB018A819B811496FA
:100E6000AD90BD90CD90DC901797EC80FD800E8109
:100E70001F819101281B390BB90137FF04C0662778
:100E80007727621B730B603271050CF061C012167C
:100E900013066CF537014801062E04C0969487941A
:100EA000779467940A94D2F721E030E040E050E074
:100EB00004C0220F331F441F551F6A95D2F72150DB
:100EC0003040404050402E213F21402351232115E6
:100ED00031054105510521F021E030E040E050E0CE
:100EE00079018A01E628F728082919293CC0232B13
:100EF000D1F1260E371E35014601062E04C0969408
:100F00008794779467940A94D2F721E030E040E028
:100F100050E004C0220F331F441F551F6A95D2F7BB
:100F200021503040404050402A213B214C215D213E
:100F3000211531054105510521F021E030E040E067
:100F400050E059016A01A628B728C828D9280BC043
:100F5000821593052CF01C01AA24BB24650103C053
:100F6000EE24FF24870111969C91D20111968C9159
:100F7000981709F445C0992339F0A80197012A1957
:100F80003B094C095D0906C0A60195012E193F09D0
:100F9000400B510B57FD08C01182338222822483FB
:100FA0003583468357831DC081E08183338222824B
:100FB00088279927DC01821B930BA40BB50B848334
:100FC0009583A683B7830DC0220F331F441F551F7F
:100FD000248335834683578382819381019793834A
:100FE00082832481358146815781DA01C9010197C5
:100FF000A109B1098F5F9F4FAF4FBF4328F30BC0CB
:10100000918333822282EA0CFB1C0C1D1D1DE4829D
:10101000F5820683178383E08083248135814681AE
:10102000578157FF1AC0C901AA2797FDA095BA2F6B
:1010300081709070A070B070569547953795279540
:10104000822B932BA42BB52B84839583A683B78304
:1010500082819381019693838283DF0101C0D20153
:10106000CD01CDB7DEB7E2E10C948819A0E2B0E083
:10107000ECE3F8E00C94781969837A838B839C8382
:101080002D833E834F835887E9E0EE2EF12CEC0E42
:10109000FD1ECE010196B7010E945B0C8E010F5E12
:1010A0001F4FCE010596B8010E945B0C8A8991E022
:1010B00089278A8BC701B801AE01475E5F4F0E9446
:1010C000EA060E94860BA096E6E00C949419A0E232
:1010D000B0E0EDE6F8E00C94781969837A838B83AD
:1010E0009C832D833E834F835887F9E0EF2EF12CAC
:1010F000EC0EFD1ECE010196B7010E945B0C8E0125
:101100000F5E1F4FCE010596B8010E945B0CC70110
:10111000B801AE01475E5F4F0E94EA060E94860B4F
:10112000A096E6E00C949419A0E2B0E0EAE9F8E0B9
:101130000C946C1969837A838B839C832D833E8303
:101140004F835887CE010196BE01675F7F4F0E9493
:101150005B0CCE010596BE016F5E7F4F0E945B0C5B
:101160009985923088F089898230C8F0943019F4DA
:10117000823051F404C0843029F4923081F480E646
:1011800090E0C6C0923049F420E09A858A8998138D
:1011900021E02A87CE010996BBC0823049F420E0C5
:1011A0009A858A89981321E02A8BCE014196B0C096
:1011B0002D843E844F8458886D887E888F88988CD3
:1011C000EE24FF248701AA24BB24650140E050E0FF
:1011D00060E070E0E0E0F0E0C10181709070892B88
:1011E000E9F0E60CF71C081D191D9A01AB012A0D48
:1011F0003B1D4C1D5D1D80E090E0A0E0B0E0E614DA
:10120000F7040805190520F481E090E0A0E0B0E0C3
:10121000BA01A901480F591F6A1F7B1FAA0CBB1CEA
:10122000CC1CDD1C97FE08C081E090E0A0E0B0E09F
:10123000A82AB92ACA2ADB2A3196E032F10549F0F8
:10124000660C771C881C991C5694479437942794F5
:10125000C3CFFA85EA892B893C898B859C85280F29
:10126000391F2E5F3F4F17C0CA0181709070892BC4
:1012700061F016950795F794E79480E090E0A0E080
:10128000B0E8E82AF92A0A2B1B2B76956795579523
:1012900047952F5F3F4F77FDE7CF0CC0440F551F99
:1012A000661F771F17FD4160EE0CFF1C001F111F0A
:1012B00021503040403090E0590790E0690790E4B9
:1012C000790760F32B8F3C8FDB01CA018F77907019
:1012D000A070B07080349105A105B10561F447FD9F
:1012E0000AC0E114F1040105110529F0405C5F4FCB
:1012F0006F4F7F4F40781A8EFE1711F081E08A8F72
:101300004D8F5E8F6F8F78A383E0898FCE014996D2
:101310000E94860BA096E2E10C948819A8E1B0E047
:10132000E4E9F9E00C94741969837A838B839C83D4
:101330002D833E834F835887B9E0EB2EF12CEC0EC2
:10134000FD1ECE010196B7010E945B0C8E010F5E5F
:101350001F4FCE010596B8010E945B0C29852230F3
:1013600008F47EC03989323010F4B8017CC08A8517
:101370009A8989278A87243011F0223031F4231783
:1013800009F06EC060E670E06EC0343039F41D863E
:101390001E861F86188A1C861B8604C0323021F4E4
:1013A00084E08987B7015FC02B853C858B899C8948
:1013B000281B390B3C872B87ED84FE840F85188909
:1013C000AD88BE88CF88D88CEA14FB040C051D05B7
:1013D00040F4EE0CFF1C001F111F215030403C87D1
:1013E0002B8720E030E040E050E080E090E0A0E09B
:1013F000B0E460E070E0EA14FB040C051D0540F069
:10140000282B392B4A2B5B2BEA18FB080C091D09EA
:10141000B695A79597958795EE0CFF1C001F111F99
:101420006F5F7F4F6F31710531F7DA01C9018F7737
:101430009070A070B07080349105A105B10561F481
:1014400027FD0AC0E114F1040105110529F0205C13
:101450003F4F4F4F5F4F20782D873E874F87588BE8
:10146000BE01675F7F4FCB010E94860B6896EAE062
:101470000C949019A8E1B0E0E0E4FAE00C9478193B
:1014800069837A838B839C832D833E834F83588724
:1014900089E0E82EF12CEC0EFD1ECE010196B7017D
:1014A0000E945B0C8E010F5E1F4FCE010596B801A6
:1014B0000E945B0C8985823040F08989823028F057
:1014C000C701B8010E94D30C01C08FEF6896E6E017
:1014D0000C949419ACE0B0E0E0E7FAE00C947C19CD
:1014E00069837A838B839C83CE010196BE016B5FF7
:1014F0007F4F0E945B0C8D81823061F1823050F110
:10150000843021F48E81882351F12EC02F813885BB
:1015100037FD20C06E812F3131051CF06623F9F0B4
:1015200023C08EE190E0821B930B29853A854B8581
:101530005C8504C056954795379527958A95D2F7CF
:101540006623B1F050954095309521953F4F4F4F10
:101550005F4F0EC020E030E040E050E009C02FEFC8
:101560003FEF4FEF5FE704C020E030E040E050E89D
:10157000B901CA012C96E2E00C949819A8E0B0E0F9
:10158000E4ECFAE00C9474197B018C01611571058F
:101590008105910519F482E0898360C083E0898325
:1015A0008EE1C82ED12CDC82CB82ED82FE820F83AD
:1015B0001887C801B7010E94370BFC013197F7FF6C
:1015C0003BC0222733272E1B3F0B57016801022EF9
:1015D00004C0D694C794B794A7940A94D2F740E075
:1015E00050E060E070E081E090E0A0E0B0E004C096
:1015F000880F991FAA1FBB1F2A95D2F70197A1092F
:10160000B1098E219F21A023B1230097A105B10527
:1016100021F041E050E060E070E04A295B296C294C
:101620007D294D835E836F8378878EE190E08E1BEA
:101630009F0B9C838B8312C0309781F00E2E04C0C9
:10164000EE0CFF1C001F111F0A94D2F7ED82FE82E0
:101650000F831887CE1ADF0ADC82CB821A82CE0172
:1016600001960E94860B2896EAE00C949019EF925E
:10167000FF920F931F937B018C0180E0E81680E0BE
:10168000F80681E0080780E0180788F48FEFE81675
:10169000F1040105110531F028F088E090E0A0E0A8
:1016A000B0E017C080E090E0A0E0B0E012C080E0C1
:1016B000E81680E0F80680E0080781E0180728F0C7
:1016C00088E190E0A0E0B0E004C080E190E0A0E01C
:1016D000B0E020E230E040E050E0281B390B4A0B3C
:1016E0005B0B04C016950795F794E7948A95D2F79B
:1016F000F701E859FF4F8081281B31094109510941
:10170000C9011F910F91FF90EF900895DF92EF9222
:10171000FF920F931F93FC01E480F58006811781EF
:10172000D1808081823048F480E090E0A0E1B0E098
:10173000E82AF92A0A2B1B2BA5C0843009F49FC084
:10174000823021F4EE24FF24870105C0E114F10466
:101750000105110519F4E0E0F0E096C062817381A3
:101760009FEF623879070CF05BC022E83FEF261B41
:10177000370B2A3131052CF020E030E040E050E01A
:101780002AC0B801A701022E04C076956795579527
:1017900047950A94D2F781E090E0A0E0B0E004C061
:1017A000880F991FAA1FBB1F2A95D2F70197A1097D
:1017B000B1098E219F21A023B1230097A105B10576
:1017C00021F081E090E0A0E0B0E09A01AB01282B8D
:1017D000392B4A2B5B2BDA01C9018F779070A070EF
:1017E000B07080349105A105B10539F427FF09C017
:1017F000205C3F4F4F4F5F4F04C0215C3F4F4F4F26
:101800005F4FE0E0F0E02030A0E03A07A0E04A07B8
:10181000A0E45A0710F0E1E0F0E079018A0127C066
:101820006038710564F5FB01E158FF4FD801C7012D
:101830008F779070A070B07080349105A105B105CC
:1018400039F4E7FE0DC080E490E0A0E0B0E004C011
:101850008FE390E0A0E0B0E0E80EF91E0A1F1B1F26
:1018600017FF05C016950795F794E794319687E022
:1018700016950795F794E7948A95D1F705C0EE245D
:10188000FF248701EFEFF0E06E2F679566276795DD
:10189000902F9F77D794DD24D7948E2F8695492F4C
:1018A000462B582F5D29B701CA011F910F91FF9058
:1018B000EF90DF900895FC01DB014081518122818E
:1018C000622F6F7770E0221F2227221F9381892FBA
:1018D000880F822B282F30E0991F9927991F119686
:1018E0009C93119721153105A9F541155105610505
:1018F000710511F482E037C082E89FEF13969C9344
:101900008E9312979A01AB0167E0220F331F441F99
:10191000551F6A95D1F783E08C930DC0220F331FBA
:10192000441F551F12968D919C9113970197139602
:101930009C938E931297203080E0380780E0480710
:1019400080E4580758F314962D933D934D935C9380
:10195000179708952F3F310579F441155105610519
:10196000710519F484E08C93089564FF03C081E04D
:101970008C9312C01C9210C02F57304013963C938A
:101980002E93129783E08C9387E0440F551F661FB8
:10199000771F8A95D1F7706414964D935D936D937C
:1019A0007C93179708951F93DC01FB019C91923063
:1019B00008F447C08081823008F443C0943051F469
:1019C00011961C91843099F58181682F70E0611B1C
:1019D00071093FC0843021F0923031F48230B9F186
:1019E0008181882389F12DC011961C911197823035
:1019F000F1F081811817D9F412962D913C9113972B
:101A0000828193818217930794F028173907BCF0DD
:101A100014968D919D910D90BC91A02D24813581BE
:101A200046815781281739074A075B0718F41123A5
:101A300041F00AC082179307A407B50740F41123A9
:101A400019F061E070E005C06FEF7FEF02C060E069
:101A500070E0CB011F910895DF93CF930F92CDB724
:101A6000DEB71982198206C089810E94670E8981BA
:101A70008F5F898389818A30B8F30E94481185E598
:101A80009DE00E947D110F90CF91DF910895DF932B
:101A9000CF93CDB7DEB7AFE5B0E0EFE5F0E0808102
:101AA00080688C93CF91DF910895DF93CF930F924D
:101AB000CDB7DEB7198294C08981282F30E0C901E3
:101AC000880F991F820F931F880F991FFC01EE57F3
:101AD000FE4F80819181009709F47FC08981282F72
:101AE00030E0C901880F991F820F931F0196880F5C
:101AF000991FFC01EE57FE4F8081882309F04DC0ED
:101B00008981282F30E0C901880F991F820F931F08
:101B1000880F991FFC01EB57FE4F8081482F4F5FC4
:101B2000C901880F991F820F931F880F991FFC010D
:101B3000EB57FE4F40838981282F30E0C901880F81
:101B4000991F820F931F880F991FFC01EA57FE4FC0
:101B500080819181009709F440C08981482F50E02D
:101B60008981282F30E0C901880F991F820F931FA8
:101B7000880F991FFC01EA57FE4F80819181282F21
:101B8000CA01880F991F840F951F0196880F991F0E
:101B9000FC01EE57FE4F208320C08981482F50E082
:101BA0008981282F30E0C901880F991F820F931F68
:101BB0000196880F991FFC01EE57FE4F8081282F58
:101BC0002150CA01880F991F840F951F0196880F15
:101BD000991FFC01EE57FE4F208389818F5F898317
:101BE00089818A3008F468CF0F90CF91DF910895F2
:101BF000DF93CF9300D000D000D0CDB7DEB79B836A
:101C00008A836C835E834D83198203C089818F5FD1
:101C100089838981282F30E0C901880F991F820F9D
:101C2000931F880F991FFC01EE57FE4F8081918111
:101C3000009719F089818A3048F38981282F30E094
:101C40004A815B81C901880F991F820F931F880FFA
:101C5000991FFC01EE57FE4F518340838981282F45
:101C600030E0C901880F991F820F931F0196880FDA
:101C7000991FFC01EE57FE4F8C8180838981282FAC
:101C800030E0C901880F991F820F931F880F991F99
:101C9000FC01EA57FE4F8D819E819183808389816B
:101CA000282F30E0C901880F991F820F931F880FDA
:101CB000991FFC01EB57FE4F1082898126960FB6C3
:101CC000F894DEBF0FBECDBFCF91DF910895DF93B3
:101CD000CF930F92CDB7DEB789838981282F30E06B
:101CE000C901880F991F820F931F880F991FFC014C
:101CF000EE57FE4F118210828981282F30E0C901F2
:101D0000880F991F820F931F0196880F991FFC015E
:101D1000EE57FE4F10828981282F30E0C901880FCD
:101D2000991F820F931F880F991FFC01EA57FE4FDE
:101D3000118210828981282F30E0C901880F991FF4
:101D4000820F931F880F991FFC01EB57FE4F1082E3
:101D50000F90CF91DF910895DF93CF930F92CDB77E
:101D6000DEB719823EC08981282F30E0C901880F73
:101D7000991F820F931F880F991FFC01EE57FE4F8A
:101D8000118210828981282F30E0C901880F991FA4
:101D9000820F931F0196880F991FFC01EE57FE4F8B
:101DA00010828981282F30E0C901880F991F820F86
:101DB000931F880F991FFC01EA57FE4F1182108272
:101DC0008981282F30E0C901880F991F820F931F46
:101DD000880F991FFC01EB57FE4F108289818F5F9E
:101DE000898389818A3008F4BECF0F90CF91DF912B
:101DF0000895DF93CF930F92CDB7DEB7198257C006
:101E00008981282F30E0C901880F991F820F931F05
:101E1000880F991FFC01EB57FE4F8081882309F43E
:101E200043C08981282F30E0C901880F991F820F94
:101E3000931F880F991FFC01EE57FE4F0190F08110
:101E4000E02D09958981482F50E08981282F30E0C5
:101E5000C901880F991F820F931F880F991FFC01DA
:101E6000EB57FE4F8081282F2150CA01880F991F00
:101E7000840F951F880F991FFC01EB57FE4F20839D
:101E80008981282F30E0C901880F991F820F931F85
:101E9000880F991FFC01EA57FE4F808191810097BE
:101EA00019F489810E94670E89818F5F89838981F6
:101EB0008A3008F4A5CF0F90CF91DF910895DF937A
:101EC000CF93CDB7DEB7AFE5B0E0EFE5F0E08081CE
:101ED0008F778C93CF91DF9108952F923F924F92FD
:101EE0005F926F927F928F929F92AF92BF92CF92AA
:101EF000DF92EF92FF920F931F93DF93CF93CDB7B3
:101F0000DEB72A970FB6F894DEBF0FBECDBF84E0D0
:101F100060E040E00E94A11284E061E041E00E94A4
:101F2000A112EAE2F0E088E1808380916801282F25
:101F300030E03A87298789859A85009731F0E985CD
:101F4000FA85E130F10549F00FC0A0E4B0E0E0E42B
:101F5000F0E080818F7B8C9307C0A0E4B0E0E0E4E8
:101F6000F0E0808180648C9380916901282F30E0BB
:101F700038872F838F81988581309105C9F0EF8153
:101F8000F885E230F10519F12F81388521153105E9
:101F900061F5A0E4B0E0E0E4F0E080818F7D8C9317
:101FA000A0E4B0E0E0E4F0E080818F7E8C931DC07F
:101FB000A0E4B0E0E0E4F0E0808180628C93A0E4F3
:101FC000B0E0E0E4F0E080818F7E8C930EC0A0E46E
:101FD000B0E0E0E4F0E0808180628C93A0E4B0E0C7
:101FE000E0E4F0E0808180618C9380916A01E82FC9
:101FF000F0E0FE83ED832D813E812130310531F00B
:102000008D819E818230910549F00FC0A0E4B0E03F
:10201000E0E4F0E08081877F8C9307C0A0E4B0E02B
:10202000E0E4F0E0808188608C9380916B01E82F80
:10203000F0E0FC83EB832B813C812630310569F194
:102040008B819C818730910534F4EB81FC81E530F4
:10205000F10569F063C02B813C812730310599F18E
:102060008B819C818830910509F443C057C0A0E45E
:10207000B0E0E0E4F0E080818B7F8C93A0E4B0E0FE
:10208000E0E4F0E080818B7F8C93A0E4B0E0E0E4BA
:10209000F0E080818D7F8C9341C0A0E4B0E0E0E46B
:1020A000F0E080818B7F8C93A0E4B0E0E0E4F0E08E
:1020B00080818B7F8C93A0E4B0E0E0E4F0E080814D
:1020C00082608C932BC0A0E4B0E0E0E4F0E080817B
:1020D0008B7F8C93A0E4B0E0E0E4F0E0808184604A
:1020E0008C93A0E4B0E0E0E4F0E080818D7F8C93FD
:1020F00015C0A0E4B0E0E0E4F0E080818B7F8C9339
:10210000A0E4B0E0E0E4F0E0808184608C93A0E49F
:10211000B0E0E0E4F0E0808182608C93E9E2F0E0FE
:10212000FA83E983A0906E01B0906F01C0907001B6
:10213000D0907101E0907201F090730100917401F0
:102140001091750180916C0190916D01829592952D
:10215000907F9827807F98271C014424552466246B
:10216000772443012A2D3B2D4C2D5D2D6E2D7F2D87
:10217000802F912FA22CB32CC42CD52CE62CF72C1D
:10218000082D192D0E947500A22EB32EC42ED52E17
:10219000E62EF72E082F192F2A2D3B2D4C2D5D2DC5
:1021A0006E2D7F2D802F912F822F8150E981FA8112
:1021B00080832A960FB6F894DEBF0FBECDBFCF91B5
:1021C000DF911F910F91FF90EF90DF90CF90BF9024
:1021D000AF909F908F907F906F905F904F903F90C7
:1021E0002F900895DF93CF9300D0CDB7DEB79A83B9
:1021F0008983EBE2F0E08081829586958770882F55
:1022000090E0817090700097A1F3ECE2F0E089819A
:1022100080830F900F90CF91DF910895DF93CF933C
:10222000CDB7DEB7EBE2F0E080818823DCF7ECE2AB
:10223000F0E08081CF91DF910895DF93CF9300D0BC
:102240000F92CDB7DEB79B838A83198210C0898134
:10225000282F30E08A819B81FC01E20FF31F8081EF
:10226000882F90E00E94F21089818F5F8983898195
:10227000282F30E08A819B81FC01E20FF31F8081CF
:10228000882329F70F900F900F90CF91DF91089539
:10229000DF93CF93CDB7DEB7A9E5B0E0E9E5F0E095
:1022A000808180648C93E4E4F0E082E88083A5E49C
:1022B000B0E0E5E4F0E080818E7F8C93A5E4B0E0AF
:1022C000E5E4F0E0808182608C93A5E4B0E0E5E491
:1022D000F0E080818B7F8C93CF91DF910895DF9325
:1022E000CF930F92CDB7DEB78983E3E4F0E0898125
:1022F00080830F90CF91DF910895DF93CF9300D02B
:10230000CDB7DEB79A83898389819A81009731F0AE
:1023100089819A8190937D0180937C010F900F9029
:10232000CF91DF910895DF93CF9300D0CDB7DEB783
:102330009A83898389819A81009731F089819A8172
:1023400090937F0180937E010F900F90CF91DF914A
:102350000895DF93CF9300D000D00F92CDB7DEB7B2
:102360009D838C831B821A8219821DC0E8E5F0E0F0
:1023700080818695882F90E081709070882351F03D
:1023800089818F5F8983A8E5B0E0E8E5F0E080818E
:1023900082608C938981843031F48A819B8101969B
:1023A0009B838A8319822A813B818C819D81281796
:1023B0003907E1F60F900F900F900F900F90CF918B
:1023C000DF9108951F920F920FB60F9211242F9351
:1023D0003F934F935F936F937F938F939F93AF93AD
:1023E000BF93EF93FF93DF93CF93CDB7DEB7E4E4D2
:1023F000F0E082E8808380917C0190917D010097DC
:1024000029F0E0917C01F0917D010995CF91DF9158
:10241000FF91EF91BF91AF919F918F917F916F91BC
:102420005F914F913F912F910F900FBE0F901F9092
:1024300018951F920F920FB60F9211242F933F936E
:102440004F935F936F937F938F939F93AF93BF93BC
:10245000EF93FF93DF93CF93CDB7DEB780917E01EB
:1024600090917F01009729F0E0917E01F0917F012A
:102470000995CF91DF91FF91EF91BF91AF919F911E
:102480008F917F916F915F914F913F912F910F901D
:102490000FBE0F901F901895DF93CF93CDB7DEB787
:1024A000EFE4F0E01082EEE4F0E01082AFE4B0E0A0
:1024B000EFE4F0E0808180688C93AFE4B0E0EFE47B
:1024C000F0E0808180628C93AFE4B0E0EFE4F0E074
:1024D000808182608C93AEE4B0E0EEE4F0E0808135
:1024E00088608C93AEE4B0E0EEE4F0E0808180613F
:1024F0008C93AEE4B0E0EEE4F0E0808181608C93F8
:10250000E6E4F0E08FE19EE491838083EAE4F0E08A
:1025100084E891E091838083CF91DF910895DF93E8
:10252000CF9300D0CDB7DEB79A838983EAE4F0E099
:1025300089819A81918380830F900F90CF91DF9151
:102540000895DF93CF93CDB7DEB729970FB6F894F0
:10255000DEBF0FBECDBF89836A834B838B81282F5B
:1025600030E03987288788859985009709F476C0F7
:10257000288539852130310509F02EC18981282F20
:1025800030E03F832E838E819F818230910551F10F
:102590002E813F812330310534F48E819F8181303B
:1025A000910561F019C12E813F812330310571F110
:1025B0008E819F8184309105E9F10EC1AAE3B0E0DC
:1025C000EAE3F0E08081482F8A81282F30E081E023
:1025D00090E0022E02C0880F991F0A94E2F7842B24
:1025E0008C93FAC0A7E3B0E0E7E3F0E08081482FE6
:1025F0008A81282F30E081E090E0022E02C0880F0F
:10260000991F0A94E2F7842B8C93E6C0A4E3B0E010
:10261000E4E3F0E08081482F8A81282F30E081E0D8
:1026200090E0022E02C0880F991F0A94E2F7842BD3
:102630008C93D2C0A1E3B0E0E1E3F0E08081482FC9
:102640008A81282F30E081E090E0022E02C0880FBE
:10265000991F0A94E2F7842B8C93BEC08981282F9E
:1026600030E03D832C838C819D818230910509F47B
:102670003FC02C813D812330310534F48C819D8114
:102680008130910571F0A8C02C813D812330310546
:1026900009F455C08C819D818430910509F476C080
:1026A0009BC0AAE3B0E0EAE3F0E08081482F8A8192
:1026B000282F30E081E090E002C0880F991F2A9512
:1026C000E2F7809584238C93A9E3B0E0E9E3F0E09E
:1026D0008081482F8A81282F30E081E090E0022E0F
:1026E00002C0880F991F0A94E2F7842B8C9374C060
:1026F000A7E3B0E0E7E3F0E08081482F8A81282F4C
:1027000030E081E090E002C0880F991F2A95E2F73F
:10271000809584238C93A6E3B0E0E6E3F0E080812B
:10272000482F8A81282F30E081E090E0022E02C0FD
:10273000880F991F0A94E2F7842B8C934DC0A4E371
:10274000B0E0E4E3F0E08081482F8A81282F30E078
:1027500081E090E002C0880F991F2A95E2F78095EA
:1027600084238C93A3E3B0E0E3E3F0E08081482F7F
:102770008A81282F30E081E090E0022E02C0880F8D
:10278000991F0A94E2F7842B8C9326C0A1E3B0E052
:10279000E1E3F0E08081482F8A81282F30E081E05A
:1027A00090E002C0880F991F2A95E2F78095842354
:1027B0008C93A0E3B0E0E0E3F0E08081482F8A81D1
:1027C000282F30E081E090E0022E02C0880F991F90
:1027D0000A94E2F7842B8C9329960FB6F894DEBF07
:1027E0000FBECDBFCF91DF910895DF93CF93CDB7CB
:1027F000DEB728970FB6F894DEBF0FBECDBF898332
:102800006A838A81282F30E038872F838F819885CB
:102810000097D1F12F8138852130310509F063C04F
:102820008981282F30E03E832D838D819E818230E7
:102830009105D9F02D813E812330310534F48D810D
:102840009E818130910561F04EC02D813E81233003
:10285000310581F08D819E818430910581F043C0E6
:10286000EAE3F0E08FEF80833EC0E7E3F0E08FEF34
:10287000808339C0E4E3F0E08FEF808334C0E1E38C
:10288000F0E08FEF80832FC08981282F30E03C83D8
:102890002B838B819C8182309105D1F02B813C81EF
:1028A0002330310534F48B819C818130910561F0B6
:1028B0001AC02B813C812330310571F08B819C81C2
:1028C0008430910569F00FC0EAE3F0E010820BC09C
:1028D000E7E3F0E0108207C0E4E3F0E0108203C019
:1028E000E1E3F0E0108228960FB6F894DEBF0FBE49
:1028F000CDBFCF91DF910895DF93CF93CDB7DEB7F2
:1029000029970FB6F894DEBF0FBECDBF89836A83C7
:102910004B838B81282F30E03987288788859985DC
:10292000009709F476C0288539852130310509F0F2
:10293000E4C08981282F30E03F832E838E819F81E0
:102940008230910551F12E813F812330310534F4DD
:102950008E819F818130910561F0CFC02E813F81B2
:102960002330310571F18E819F8184309105E9F129
:10297000C4C0ABE3B0E0EBE3F0E08081482F8A8194
:10298000282F30E081E090E0022E02C0880F991FCE
:102990000A94E2F7842B8C93B0C0A8E3B0E0E8E39C
:1029A000F0E08081482F8A81282F30E081E090E09C
:1029B000022E02C0880F991F0A94E2F7842B8C9391
:1029C0009CC0A5E3B0E0E5E3F0E08081482F8A8178
:1029D000282F30E081E090E0022E02C0880F991F7E
:1029E0000A94E2F7842B8C9388C0A2E3B0E0E2E380
:1029F000F0E08081482F8A81282F30E081E090E04C
:102A0000022E02C0880F991F0A94E2F7842B8C9340
:102A100074C08981282F30E03D832C838C819D8177
:102A20008230910561F12C813D812330310534F4F0
:102A30008C819D818130910569F05FC02C813D8141
:102A40002330310589F18C819D818430910509F411
:102A500040C053C0ABE3B0E0EBE3F0E08081482F2F
:102A60008A81282F30E081E090E0022E02C0880F9A
:102A7000991F0A94E2F7809584238C933EC0A8E3C3
:102A8000B0E0E8E3F0E08081482F8A81282F30E031
:102A900081E090E0022E02C0880F991F0A94E2F7AD
:102AA000809584238C9329C0A5E3B0E0E5E3F0E0B2
:102AB0008081482F8A81282F30E081E090E0022E2B
:102AC00002C0880F991F0A94E2F7809584238C93A3
:102AD00014C0A2E3B0E0E2E3F0E08081482F8A81F5
:102AE000282F30E081E090E0022E02C0880F991F6D
:102AF0000A94E2F7809584238C9329960FB6F89474
:102B0000DEBF0FBECDBFCF91DF910895DF93CF938E
:102B100000D000D0CDB7DEB789836A838981282FA2
:102B200030E03C832B838B819C8182309105D9F0EE
:102B30002B813C812330310534F48B819C818130A1
:102B4000910561F01EC02B813C812330310581F05D
:102B50008B819C818430910581F013C0EBE3F0E020
:102B60008A8180830EC0E8E3F0E08A81808309C017
:102B7000E5E3F0E08A81808304C0E2E3F0E08A814B
:102B800080830F900F900F900F90CF91DF91089559
:102B9000DF93CF9300D000D00F92CDB7DEB78A83FA
:102BA0006B8319828A81282F30E03D832C834C81EE
:102BB0005D814230510541F18C819D8183309105C9
:102BC00034F42C813D812130310561F052C04C81BB
:102BD0005D814330510551F18C819D818430910597
:102BE000B9F147C0E9E3F0E08081282F30E08B8124
:102BF000882F90E0A90102C0559547958A95E2F784
:102C0000CA018170898335C0E6E3F0E08081282F16
:102C100030E08B81882F90E0A90102C0559547953F
:102C20008A95E2F7CA018170898323C0E3E3F0E06B
:102C30008081282F30E08B81882F90E0A90102C08D
:102C4000559547958A95E2F7CA018170898311C02D
:102C5000E0E3F0E08081282F30E08B81882F90E046
:102C6000A90102C0559547958A95E2F7CA0181707E
:102C7000898389810F900F900F900F900F90CF91C3
:102C8000DF910895DF93CF9300D000D0CDB7DEB7AA
:102C90008A8319828A81282F30E03C832B838B81A1
:102CA0009C8182309105D9F02B813C812330310504
:102CB00034F48B819C818130910561F01EC02B81A1
:102CC0003C812330310581F08B819C8184309105DA
:102CD00081F013C0E9E3F0E0808189830EC0E6E370
:102CE000F0E08081898309C0E3E3F0E0808189839B
:102CF00004C0E0E3F0E08081898389810F900F9028
:102D00000F900F90CF91DF910895DF93CF93CDB7C0
:102D1000DEB781E060E00E94F513A6E2B0E0E6E2F3
:102D2000F0E0808180688C93A6E2B0E0E6E2F0E01B
:102D3000808184608C93A6E2B0E0E6E2F0E08081DE
:102D400082608C93A7E2B0E0E7E2F0E080818064EB
:102D50008C93CF91DF910895DF93CF930F92CDB7EE
:102D6000DEB78983A7E2B0E0E7E2F0E08081807E11
:102D70008C93A7E2B0E0E7E2F0E090818981892BB3
:102D80008C93A6E2B0E0E6E2F0E0808180648C9370
:102D9000E6E2F0E0808182958F70882F90E081706C
:102DA00090700097A9F3A6E2B0E0E6E2F0E080813F
:102DB0008F7E8C93E4E2F0E0808191810F90CF913F
:102DC000DF910895DF93CF93CDB7DEB727970FB686
:102DD000F894DEBF0FBECDBF8F838F810E94AC16EB
:102DE0009E838D832D813E81C901880F991F880F95
:102DF000991F820F931FCC01A0E0B0E0BC01CD0170
:102E00000E94BE0ADC01CB01BC01CD0120E030E014
:102E100040E854E40E948E09DC01CB0189839A8347
:102E2000AB83BC8389819A81AB81BC81BC01CD011C
:102E300027960FB6F894DEBF0FBECDBFCF91DF91BE
:102E40000895DF93CF9300D00F92CDB7DEB79B8369
:102E50008A838A819B81CC01A0E0B0E0BC01CD01D6
:102E60000E94BE0ADC01CB01BC01CD0120E030E0B4
:102E700040E854E40E948E09DC01CB01BC01CD0185
:102E800020E030E048EC52E40E949408DC01CB01E1
:102E9000BC01CD010E944900DC01CB0189838981FD
:102EA000893130F082E062E040E00E947C1405C08D
:102EB00082E062E041E00E947C140F900F900F903E
:102EC000CF91DF910895DF93CF930F92CDB7DEB707
:102ED00082E00E94AC16CC01A0E0B0E0BC01CD01C4
:102EE0000E94BE0ADC01CB01BC01CD012CE53FE80C
:102EF00042E050E40E948E09DC01CB01BC01CD010F
:102F00000E944900DC01CB01898389810F90CF9118
:102F1000DF910895DF93CF9300D0CDB7DEB780E087
:102F20000E94AC169A83898389819A810F900F90B1
:102F3000CF91DF910895DF93CF93CDB7DEB782E0D5
:102F400060E00E94C815CF91DF910895DF93CF9381
:102F500000D00F92CDB7DEB789838981282F30E06A
:102F60003B832A838A819B81009731F02A813B81B0
:102F70002130310539F00BC082E061E040E00E9471
:102F80007C1405C082E061E041E00E947C140F9057
:102F90000F900F90CF91DF910895DF93CF9300D0E2
:102FA000CDB7DEB789836A8399818A81981730F417
:102FB00082E063E040E00E947C1409C099818A812C
:102FC000981728F082E063E041E00E947C140F90A3
:102FD0000F90CF91DF910895DF93CF93CDB7DEB7F8
:102FE00082E063E041E00E94A11282E060E040E004
:102FF0000E94A11283E060E041E00E94A11282E001
:1030000061E041E00E94A11282E062E041E00E94A2
:10301000A11284E065E041E00E94A1120E946D0FC0
:103020000E9485160E944C12CF91DF910895DF9384
:10303000CF93CDB7DEB70E949B1781708170982F18
:10304000990F990F990F8091BE01877F892B8093EB
:10305000BE018091BE0186958695869581700E94FD
:10306000A617CF91DF910895DF93CF93CDB7DEB749
:103070000E94631780937A0180917A019091760182
:10308000692F0E94CD17CF91DF910895DF93CF93E1
:1030900000D0CDB7DEB780917701882371F08091A1
:1030A000BE0181608093BE010E948A179A83898342
:1030B00089819A810E94211709C08091BE018E7F6B
:1030C0008093BE0188EE93E00E9421170F900F902D
:1030D000CF91DF910895DF93CF93CDB7DEB7809185
:1030E0007801882351F08091BE0182608093BE01F7
:1030F00081EE94E00E948F1209C08091BE018D7F05
:103100008093BE0184E891E00E948F12CF91DF91FD
:103110000895DF93CF93CDB7DEB7809179018823EF
:1031200059F08091BE0184608093BE0183E060E02D
:1031300041E00E947C140AC08091BE018B7F809385
:10314000BE0183E060E040E00E947C14CF91DF91FB
:103150000895DF93CF9300D0CDB7DEB78091BE0145
:103160008A8380917B018823C9F480918101813019
:1031700041F48A81882F90E00E94F2101092810120
:1031800009C080917A01882F90E00E94F21081E0BE
:103190008093810181E080937B0121C00E940E1108
:1031A000898380918001882339F489818093760115
:1031B00081E08093800111C08981817080937701C3
:1031C000898186958170809378018981869586951D
:1031D0008170809379011092800110927B010F9091
:1031E0000F90CF91DF910895DF93CF93CDB7DEB7E6
:1031F0000E942C0D0E94EC1789EA98E160E046E9F4
:1032000050E00E94F80D87E198E161E045E050E070
:103210000E94F80D84E398E162E047E050E00E94EC
:10322000F80D86E498E163E044E150E00E94F80D77
:103230008BE698E164E044E150E00E94F80D89E8F3
:1032400098E165E044E150E00E94F80D0E94470DCE
:103250000E94F90EFDCF629FD001739FF001829F03
:10326000E00DF11D649FE00DF11D929FF00D839F15
:10327000F00D749FF00D659FF00D9927729FB00DB2
:10328000E11DF91F639FB00DE11DF91FBD01CF01C5
:1032900011240895A1E21A2EAA1BBB1BFD010DC02B
:1032A000AA1FBB1FEE1FFF1FA217B307E407F507F6
:1032B00020F0A21BB30BE40BF50B661F771F881FD2
:1032C000991F1A9469F760957095809590959B0168
:1032D000AC01BD01CF0108952F923F924F925F92B2
:1032E0006F927F928F929F92AF92BF92CF92DF9216
:1032F000EF92FF920F931F93CF93DF93CDB7DEB77B
:10330000CA1BDB0B0FB6F894DEBF0FBECDBF09940E
:103310002A88398848885F846E847D848C849B8465
:10332000AA84B984C884DF80EE80FD800C811B8173
:10333000AA81B981CE0FD11D0FB6F894DEBF0FBEA2
:0A334000CDBFED010895F894FFCF12
:10334A000000000000000000000102020303030362
:10335A00040404040404040405050505050505051B
:10336A0005050505050505050606060606060606FB
:10337A0006060606060606060606060606060606E3
:10338A0006060606060606060707070707070707CB
:10339A0007070707070707070707070707070707B3
:1033AA0007070707070707070707070707070707A3
:1033BA000707070707070707070707070707070793
:1033CA00070707070707070708080808080808087B
:1033DA000808080808080808080808080808080863
:1033EA000808080808080808080808080808080853
:1033FA000808080808080808080808080808080843
:10340A000808080808080808080808080808080832
:10341A000808080808080808080808080808080822
:10342A000808080808080808080808080808080812
:10343A000808080808080808080808080808080802
:10344A000808080808080808000001088025404202
:0C345A000F000000000019000000190124
:00000001FF
