:100000000C942A000C9447000C9447000C94470071
:100010000C941E0B0C94E70A0C9447000C944700B8
:100020000C9447000C94530C0C94860C0C944700D1
:100030000C9447000C9447000C9447000C94470024
:100040000C9447000C9447000C9447000C94470014
:100050000C94470011241FBECFE5D8E0DEBFCDBF12
:1000600013E0A0E6B0E0ECE9F4E302C005900D92E5
:10007000A239B107D9F713E0A2E9B3E001C01D929C
:10008000AF39B107E1F70E94AC190C944C1A0C94EB
:100090000000EF92FF920F931F937B018C0120E0F1
:1000A00030E040E05FE40E94A10488238CF0C801A6
:1000B000B70120E030E040E05FE40E949D020E9432
:1000C0002F059B01AC01205030404040504806C0F5
:1000D000C801B7010E942F059B01AC01B901CA01FB
:1000E0001F910F91FF90EF900895A2E0B0E0EBE731
:1000F000F0E00C94151A122FB32EA42E952E862EF6
:10010000372E282E9A83C22ED32EE42EF52EA70149
:10011000960160E070E080E090E02117A1F43B15CB
:1001200091F44A1581F4591571F4681561F4731549
:1001300051F4821541F4AA819A1729F4C701B60136
:100140000E948305AAC0212F3B2D4A2D592D682DD1
:10015000732D822D9A8100E20E94FC05C901DA010B
:100160008030E0E09E07E1E0AE07E0E0BE0780F40B
:100170008F3F9105A105B10531F028F028E030E06E
:1001800040E050E016C020E030E040E050E011C018
:100190008030F0E09F07F0E0AF07F1E0BF0728F004
:1001A00028E130E040E050E004C020E130E040E0F1
:1001B00050E0022E04C0B695A795979587950A94AE
:1001C000D2F7FC01E658FD4F808129013A01480E23
:1001D000511C611C711C4982212F3B2D4A2D592D28
:1001E000682D732D822D9A81042D0E94FC05C90172
:1001F000DA014C015D0180E290E08419950904C0A8
:10020000CC0CDD1CEE1CFF1C8A95D2F7C114D10466
:10021000E104F10441F081E090E0A0E0B0E0882A40
:10022000992AAA2ABB2A90E2491651046104710452
:1002300059F40F2EF0E0EF2EF0E0FF2EF0E80F2F34
:10024000FFE41F2FF02D21C0AFE14A1651046104D5
:10025000710459F40F2EF0E0EF2EF0E0FF2EF0E0E5
:100260000F2FFFE41F2FF02D10C061E070E080E041
:1002700090E0098004C0660F771F881F991F0A94B9
:10028000D2F70E94D1047B018C01C501B4010E9408
:100290008305A80197010E94FB022296E2E10C94DB
:1002A000311AA0E0B0E0E7E5F1E00C94151ADC01AA
:1002B0002B01FA019C91923008F439C1EB0188813D
:1002C000823008F433C1943069F4843009F02FC1CE
:1002D00011969C9111978981981709F428C1A2E77A
:1002E000B2E025C1843009F421C18230A9F49230F2
:1002F00009F01DC19A01AD0188E0EA010990AE0143
:10030000E90109929E018150C1F7E20189811196AC
:100310009C918923818308C1923009F407C1129608
:100320002D903C901397EB018A819B811496AD90A0
:10033000BD90CD90DC901797EC80FD800E811F81E1
:100340009101281B390BB90137FF04C066277727B5
:10035000621B730B603271050CF061C0121613063C
:100360006CF537014801062E04C096948794779463
:1003700067940A94D2F721E030E040E050E004C0F6
:10038000220F331F441F551F6A95D2F7215030406A
:10039000404050402E213F2140235123211531055B
:1003A0004105510521F021E030E040E050E07901C5
:1003B0008A01E628F728082919293CC0232BD1F106
:1003C000260E371E35014601062E04C096948794EA
:1003D000779467940A94D2F721E030E040E050E04F
:1003E00004C0220F331F441F551F6A95D2F72150B6
:1003F0003040404050402A213B214C215D212115B5
:1004000031054105510521F021E030E040E050E0A8
:1004100059016A01A628B728C828D9280BC0821517
:1004200093052CF01C01AA24BB24650103C0EE2413
:10043000FF24870111969C91D20111968C919817F7
:1004400009F445C0992339F0A80197012A193B09FD
:100450004C095D0906C0A60195012E193F09400B04
:10046000510B57FD08C011823382228224833583C9
:10047000468357831DC081E081833382228288278F
:100480009927DC01821B930BA40BB50B8483958306
:10049000A683B7830DC0220F331F441F551F24832B
:1004A0003583468357838281938101979383828327
:1004B0002481358146815781DA01C9010197A1095B
:1004C000B1098F5F9F4FAF4FBF4328F30BC091839C
:1004D00033822282EA0CFB1C0C1D1D1DE482F58276
:1004E0000683178383E08083248135814681578189
:1004F00057FF1AC0C901AA2797FDA095BA2F81708E
:100500009070A070B0705695479537952795822BBF
:10051000932BA42BB52B84839583A683B7838281E9
:100520009381019693838283DF0101C0D201CD01C3
:10053000CDB7DEB7E2E10C94311AA0E2B0E0E3EA15
:10054000F2E00C94211A69837A838B839C832D8338
:100550003E834F835887E9E0EE2EF12CEC0EFD1E12
:10056000CE010196B7010E949F078E010F5E1F4FBB
:10057000CE010596B8010E949F078A8991E08927DC
:100580008A8BC701B801AE01475E5F4F0E945101DF
:100590000E94CA06A096E6E00C943D1AA0E2B0E0E4
:1005A000E4EDF2E00C94211A69837A838B839C83B7
:1005B0002D833E834F835887F9E0EF2EF12CEC0E0C
:1005C000FD1ECE010196B7010E949F078E010F5EAE
:1005D0001F4FCE010596B8010E949F07C701B801C1
:1005E000AE01475E5F4F0E9451010E94CA06A0966D
:1005F000E6E00C943D1AA0E2B0E0E1E0F3E00C94F8
:10060000151A69837A838B839C832D833E834F8362
:100610005887CE010196BE01675F7F4F0E949F07FA
:10062000CE010596BE016F5E7F4F0E949F079985A0
:10063000923088F089898230C8F0943019F4823081
:1006400051F404C0843029F4923081F482E792E0BE
:10065000C6C0923049F420E09A858A89981321E037
:100660002A87CE010996BBC0823049F420E09A85E2
:100670008A89981321E02A8BCE014196B0C02D843F
:100680003E844F8458886D887E888F88988CEE24AD
:10069000FF248701AA24BB24650140E050E060E00C
:1006A00070E0E0E0F0E0C10181709070892BE9F02A
:1006B000E60CF71C081D191D9A01AB012A0D3B1D04
:1006C0004C1D5D1D80E090E0A0E0B0E0E614F70472
:1006D0000805190520F481E090E0A0E0B0E0BA013F
:1006E000A901480F591F6A1F7B1FAA0CBB1CCC1CF9
:1006F000DD1C97FE08C081E090E0A0E0B0E0A82AF1
:10070000B92ACA2ADB2A3196E032F10549F0660C93
:10071000771C881C991C5694479437942794C3CF10
:10072000FA85EA892B893C898B859C85280F391F9E
:100730002E5F3F4F17C0CA0181709070892B61F006
:1007400016950795F794E79480E090E0A0E0B0E874
:10075000E82AF92A0A2B1B2B76956795579547951A
:100760002F5F3F4F77FDE7CF0CC0440F551F661F2B
:10077000771F17FD4160EE0CFF1C001F111F215059
:100780003040403090E0590790E0690790E47907E5
:1007900060F32B8F3C8FDB01CA018F779070A070C4
:1007A000B07080349105A105B10561F447FD0AC020
:1007B000E114F1040105110529F0405C5F4F6F4F12
:1007C0007F4F40781A8EFE1711F081E08A8F4D8F8F
:1007D0005E8F6F8F78A383E0898FCE0149960E9448
:1007E000CA06A096E2E10C94311AA8E1B0E0EBEF62
:1007F000F3E00C941D1A69837A838B839C832D8389
:100800003E834F835887B9E0EB2EF12CEC0EFD1E92
:10081000CE010196B7010E949F078E010F5E1F4F08
:10082000CE010596B8010E949F072985223008F461
:100830007EC03989323010F4B8017CC08A859A892B
:1008400089278A87243011F0223031F4231709F0E8
:100850006EC062E772E06EC0343039F41D861E86C9
:100860001F86188A1C861B8604C0323021F484E05F
:100870008987B7015FC02B853C858B899C89281BA4
:10088000390B3C872B87ED84FE840F851889AD8852
:10089000BE88CF88D88CEA14FB040C051D0540F4F3
:1008A000EE0CFF1C001F111F215030403C872B878E
:1008B00020E030E040E050E080E090E0A0E0B0E4F4
:1008C00060E070E0EA14FB040C051D0540F0282BE5
:1008D000392B4A2B5B2BEA18FB080C091D09B6952E
:1008E000A79597958795EE0CFF1C001F111F6F5F52
:1008F0007F4F6F31710531F7DA01C9018F77907041
:10090000A070B07080349105A105B10561F427FD98
:100910000AC0E114F1040105110529F0205C3F4FE4
:100920004F4F5F4F20782D873E874F87588BBE01F2
:10093000675F7F4FCB010E94CA066896EAE00C947D
:10094000391AA8E1B0E0E7EAF4E00C94211A6983CF
:100950007A838B839C832D833E834F83588789E0E2
:10096000E82EF12CEC0EFD1ECE010196B7010E947F
:100970009F078E010F5E1F4FCE010596B8010E94A2
:100980009F078985823040F08989823028F0C7012D
:10099000B8010E94170801C08FEF6896E6E00C943A
:1009A0003D1AA8E0B0E0E7EDF4E00C941E1A9B01BC
:1009B000AC0183E08983DA01C9018827B7FD8395FB
:1009C0009927AA27BB27B82E2115310541055105C6
:1009D00019F482E089833AC08823A9F0203080E0AE
:1009E000380780E0480780E8580729F460E070E0A5
:1009F00080E09FEC30C0EE24FF248701E21AF30A66
:100A0000040B150B02C079018A018EE1C82ED12C8E
:100A1000DC82CB82ED82FE820F831887C801B7018A
:100A20000E947B0601971816190684F4082E04C04C
:100A3000EE0CFF1C001F111F0A94D2F7ED82FE82FC
:100A40000F831887C81AD90ADC82CB82BA82CE01FA
:100A500001960E94CA062896E9E00C943A1AACE086
:100A6000B0E0E5E3F5E00C94251A69837A838B8383
:100A70009C83CE010196BE016B5F7F4F0E949F0752
:100A80008D81823061F1823050F1843021F48E8189
:100A9000882351F12EC02F81388537FD20C06E810B
:100AA0002F3131051CF06623F9F023C08EE190E070
:100AB000821B930B29853A854B855C8504C056952E
:100AC0004795379527958A95D2F76623B1F05095CB
:100AD0004095309521953F4F4F4F5F4F0EC020E01E
:100AE00030E040E050E009C02FEF3FEF4FEF5FE70D
:100AF00004C020E030E040E050E8B901CA012C9683
:100B0000E2E00C94411AA8E0B0E0E9E8F5E00C94CA
:100B10001D1A7B018C01611571058105910519F480
:100B200082E0898360C083E089838EE1C82ED12C66
:100B3000DC82CB82ED82FE820F831887C801B70169
:100B40000E947B06FC013197F7FF3BC02227332729
:100B50002E1B3F0B57016801022E04C0D694C79488
:100B6000B794A7940A94D2F740E050E060E070E0B8
:100B700081E090E0A0E0B0E004C0880F991FAA1FB8
:100B8000BB1F2A95D2F70197A109B1098E219F2198
:100B9000A023B1230097A105B10521F041E050E069
:100BA00060E070E04A295B296C297D294D835E83D2
:100BB0006F8378878EE190E08E1B9F0B9C838B83E5
:100BC00012C0309781F00E2E04C0EE0CFF1C001FE7
:100BD000111F0A94D2F7ED82FE820F831887CE1A76
:100BE000DF0ADC82CB821A82CE0101960E94CA06FD
:100BF0002896EAE00C94391AEF92FF920F93DF9354
:100C0000CF93CDB7DEB760970FB6F894DEBF0FBEB7
:100C1000CDBFA82F002309F461C07E010894E11C18
:100C2000F11C88E0F70111928A95E9F729833A834C
:100C30004B835C836D837E83AF83988780E2801BC8
:100C4000E82FFF27E7FDF0954D815E816F81788564
:100C5000181684F01D861E861F86188A88279927F5
:100C60008E1B9F0B04C076956795579547958A957F
:100C7000D2F728C0202F332727FD3095DB01CA018A
:100C8000022E04C0B695A795979587950A94D2F73A
:100C90008D879E87AF87B88B04C0440F551F661F92
:100CA000771FEA95D2F789819A81AB81BC8104C014
:100CB000B695A795979587952A95D2F7482B592BE6
:100CC0006A2B7B2B49875A876B877C8729853A85D6
:100CD0004B855C856D857E85AF8598898A2F60966A
:100CE0000FB6F894DEBF0FBECDBFCF91DF910F914D
:100CF000FF90EF900895EF92FF920F931F937B0167
:100D00008C0180E0E81680E0F80681E0080780E0CA
:100D1000180788F48FEFE816F1040105110531F08A
:100D200028F088E090E0A0E0B0E017C080E090E01C
:100D3000A0E0B0E012C080E0E81680E0F80680E0B5
:100D4000080781E0180728F088E190E0A0E0B0E013
:100D500004C080E190E0A0E0B0E020E230E040E0BC
:100D600050E0281B390B4A0B5B0B04C01695079506
:100D7000F794E7948A95D2F7F701E658FD4F808102
:100D8000281B310941095109C9011F910F91FF9099
:100D9000EF900895DF92EF92FF920F931F93FC0163
:100DA000E480F58006811781D1808081823048F40B
:100DB00080E090E0A0E1B0E0E82AF92A0A2B1B2BA2
:100DC000A5C0843009F49FC0823021F4EE24FF24B2
:100DD000870105C0E114F1040105110519F4E0E0F3
:100DE000F0E096C0628173819FEF623879070CF062
:100DF0005BC022E83FEF261B370B2A3131052CF070
:100E000020E030E040E050E02AC0B801A701022E07
:100E100004C076956795579547950A94D2F781E077
:100E200090E0A0E0B0E004C0880F991FAA1FBB1F8C
:100E30002A95D2F70197A109B1098E219F21A023FC
:100E4000B1230097A105B10521F081E090E0A0E079
:100E5000B0E09A01AB01282B392B4A2B5B2BDA012E
:100E6000C9018F779070A070B07080349105A10592
:100E7000B10539F427FF09C0205C3F4F4F4F5F4F4A
:100E800004C0215C3F4F4F4F5F4FE0E0F0E0203067
:100E9000A0E03A07A0E04A07A0E45A0710F0E1E01A
:100EA000F0E079018A0127C06038710564F5FB0123
:100EB000E158FF4FD801C7018F779070A070B070D4
:100EC00080349105A105B10539F4E7FE0DC080E439
:100ED00090E0A0E0B0E004C08FE390E0A0E0B0E0DC
:100EE000E80EF91E0A1F1B1F17FF05C01695079570
:100EF000F794E794319687E016950795F794E79471
:100F00008A95D1F705C0EE24FF248701EFEFF0E0CA
:100F10006E2F679566276795902F9F77D794DD246E
:100F2000D7948E2F8695492F462B582F5D29B701D0
:100F3000CA011F910F91FF90EF90DF900895FC017F
:100F4000DB01408151812281622F6F7770E0221F87
:100F50002227221F9381892F880F822B282F30E090
:100F6000991F9927991F11969C9311972115310567
:100F7000A9F5411551056105710511F482E037C0ED
:100F800082E89FEF13969C938E9312979A01AB0180
:100F900067E0220F331F441F551F6A95D1F783E086
:100FA0008C930DC0220F331F441F551F12968D9135
:100FB0009C911397019713969C938E9312972030D0
:100FC00080E0380780E0480780E4580758F314961B
:100FD0002D933D934D935C93179708952F3F3105C3
:100FE00079F4411551056105710519F484E08C937C
:100FF000089564FF03C081E08C9312C01C9210C05E
:101000002F57304013963C932E93129783E08C9386
:1010100087E0440F551F661F771F8A95D1F77064CC
:1010200014964D935D936D937C93179708951F933A
:10103000DC01FB019C91923008F447C08081823032
:1010400008F443C0943051F411961C91843099F502
:101050008181682F70E0611B71093FC0843021F0ED
:10106000923031F48230B9F18181882389F12DC029
:1010700011961C9111978230F1F081811817D9F4E3
:1010800012962D913C911397828193818217930739
:1010900094F028173907BCF014968D919D910D900E
:1010A000BC91A02D248135814681578128173907AD
:1010B0004A075B0718F4112341F00AC0821793070F
:1010C000A407B50740F4112319F061E070E005C0F2
:1010D0006FEF7FEF02C060E070E0CB011F910895D9
:1010E0008F929F92AF92BF92CF92DF92EF92FF9238
:1010F0000F931F93DF93CF93CDB7DEB728970FB62B
:10110000F894DEBF0FBECDBF83E060E040E00E94F8
:101110007F0D83E061E041E00E947F0DEAE2F0E0B4
:1011200088E1808380917A03282F30E038872F83ED
:101130008F819885009731F0EF81F885E130F105D6
:1011400049F00FC0A0E4B0E0E0E4F0E080818F7BE4
:101150008C9307C0A0E4B0E0E0E4F0E0808180641C
:101160008C9380917B03282F30E03E832D838D81EB
:101170009E8181309105C9F0ED81FE81E230F1055B
:1011800019F12D813E812115310561F5A0E4B0E012
:10119000E0E4F0E080818F7D8C93A0E4B0E0E0E4B7
:1011A000F0E080818F7E8C931DC0A0E4B0E0E0E48D
:1011B000F0E0808180628C93A0E4B0E0E0E4F0E0B5
:1011C00080818F7E8C930EC0A0E4B0E0E0E4F0E07C
:1011D000808180628C93A0E4B0E0E0E4F0E0808164
:1011E00080618C9380917C03E82FF0E0FC83EB839B
:1011F0002B813C812130310531F08B819C81823003
:10120000910549F00FC0A0E4B0E0E0E4F0E0808197
:10121000877F8C9307C0A0E4B0E0E0E4F0E0808139
:1012200088608C9380917D03E82FF0E0FA83E98356
:1012300029813A812630310569F189819A81873087
:10124000910534F4E981FA81E530F10569F063C074
:1012500029813A812730310599F189819A81883035
:10126000910509F443C057C0A0E4B0E0E0E4F0E029
:1012700080818B7F8C93A0E4B0E0E0E4F0E080819B
:101280008B7F8C93A0E4B0E0E0E4F0E080818D7F80
:101290008C9341C0A0E4B0E0E0E4F0E080818B7F7B
:1012A0008C93A0E4B0E0E0E4F0E080818B7F8C934D
:1012B000A0E4B0E0E0E4F0E0808182608C932BC099
:1012C000A0E4B0E0E0E4F0E080818B7F8C93A0E4C8
:1012D000B0E0E0E4F0E0808184608C93A0E4B0E0D2
:1012E000E0E4F0E080818D7F8C9315C0A0E4B0E055
:1012F000E0E4F0E080818B7F8C93A0E4B0E0E0E458
:10130000F0E0808184608C93A0E4B0E0E0E4F0E061
:10131000808182608C930F2EF9E28F2E9924F02D1C
:10132000A0908003B0908103C0908203D09083038B
:10133000E0908403F0908503009186031091870369
:101340002A2D3B2D4C2D5D2D6E2D7F2D802F912F25
:101350000E9475007B018C0180917E0390917F0338
:10136000CC01A0E0B0E0BC01CD010E948305DC010E
:10137000CB01BC01CD0120E030E040E851E40E9407
:10138000FB02DC01CB019C01AD01C801B7010E9449
:10139000F503DC01CB01BC01CD0120E030E040E8E9
:1013A0005FE30E949D02DC01CB01BC01CD010E94E4
:1013B0004900DC01CB01F401808328960FB6F89434
:1013C000DEBF0FBECDBFCF91DF911F910F91FF9078
:1013D000EF90DF90CF90BF90AF909F908F90089547
:1013E000DF93CF9300D0CDB7DEB79A838983EBE24A
:1013F000F0E08081829586958770882F90E08170DB
:1014000090700097A1F3ECE2F0E0898180830F9067
:101410000F90CF91DF910895DF93CF93CDB7DEB7D3
:10142000EBE2F0E080818823DCF7ECE2F0E0808101
:10143000CF91DF910895DF93CF9300D00F92CDB776
:10144000DEB79B838A83198210C08981282F30E000
:101450008A819B81FC01E20FF31F8081882F90E03D
:101460000E94F00989818F5F89838981282F30E06C
:101470008A819B81FC01E20FF31F8081882329F779
:101480000F900F900F90CF91DF910895DF93CF933E
:10149000CDB7DEB7A9E5B0E0E9E5F0E08081806492
:1014A0008C93AFE5B0E0EFE5F0E0808180688C934D
:1014B000E4E4F0E08CE68083A5E4B0E0E5E4F0E06D
:1014C000808181608C93A5E4B0E0E5E4F0E0808168
:1014D00082608C93A5E4B0E0E5E4F0E08081846074
:1014E0008C93CF91DF910895DF93CF930F92CDB777
:1014F000DEB78983E3E4F0E0898180830F90CF91A8
:10150000DF910895DF93CF9300D0CDB7DEB79A83F4
:10151000898389819A81009731F089819A8190939A
:101520009303809392030F900F90CF91DF910895D2
:10153000DF93CF9300D0CDB7DEB79A8389838981BB
:101540009A81009731F089819A81909395038093D5
:1015500094030F900F90CF91DF910895DF93CF9375
:1015600000D000D00F92CDB7DEB79D838C831B8255
:101570001A8219821DC0E8E5F0E080818695882FE7
:1015800090E081709070882351F089818F5F89830A
:10159000A8E5B0E0E8E5F0E0808182608C93898185
:1015A000843031F48A819B8101969B838A831982DE
:1015B0002A813B818C819D8128173907E1F60F90A4
:1015C0000F900F900F900F90CF91DF9108951F9281
:1015D0000F920FB60F9211242F933F934F935F9367
:1015E0006F937F938F939F93AF93BF93EF93FF93EB
:1015F000DF93CF93CDB7DEB7E4E4F0E08CE68083F1
:101600008091920390919303009729F0E0919203C7
:10161000F09193030995CF91DF91FF91EF91BF91E5
:10162000AF919F918F917F916F915F914F913F917A
:101630002F910F900FBE0F901F9018951F920F9231
:101640000FB60F9211242F933F934F935F936F9395
:101650007F938F939F93AF93BF93EF93FF93DF930A
:10166000CF93CDB7DEB78091940390919503009707
:1016700029F0E0919403F09195030995CF91DF91C2
:10168000FF91EF91BF91AF919F918F917F916F915A
:101690005F914F913F912F910F900FBE0F901F9030
:1016A0001895DF93CF93CDB7DEB7EFE4F0E010826B
:1016B000EEE4F0E01082AFE4B0E0EFE4F0E080812F
:1016C00080688C93AFE4B0E0EFE4F0E0808180626A
:1016D0008C93AFE4B0E0EFE4F0E0808182608C9323
:1016E000AEE4B0E0EEE4F0E0808188608C93AEE49C
:1016F000B0E0EEE4F0E0808180618C93AEE4B0E095
:10170000EEE4F0E0808181608C93E6E4F0E08FE12C
:101710009EE491838083EAE4F0E084E891E09183A1
:10172000808383E065E041E00E947F0DCF91DF91EF
:101730000895DF93CF9300D0CDB7DEB79A83898326
:10174000EAE4F0E089819A81918380830F900F9081
:10175000CF91DF910895DF93CF93CDB7DEB7A3E5A7
:10176000B0E0E3E5F0E080818F7B8C93A3E5B0E00F
:10177000E3E5F0E0808188608C93A8E5B0E0E8E5DF
:10178000F0E0808182608C93ECE5F0E08AEF80836A
:10179000A3E5B0E0E3E5F0E0808181608C93A3E510
:1017A000B0E0E3E5F0E080818D7F8C93A3E5B0E0CD
:1017B000E3E5F0E080818B7F8C93CF91DF910895FA
:1017C000DF93CF930F92CDB7DEB78983ECE5F0E0DE
:1017D000898180830F90CF91DF910895DF93CF931C
:1017E00000D0CDB7DEB79A83898389819A8100972B
:1017F00031F089819A8190939703809396030F909B
:101800000F90CF91DF910895DF93CF9300D0CDB7A4
:10181000DEB79A83898389819A81009731F0898123
:101820009A8190939903809398030F900F90CF9192
:10183000DF910895DF93CF9300D000D00F92CDB702
:10184000DEB79D838C831B821A8219821DC0E8E556
:10185000F0E080818695882F90E0817090708823D9
:1018600051F089818F5F8983A8E5B0E0E8E5F0E079
:10187000808182608C938981843031F48A819B815C
:1018800001969B838A8319822A813B818C819D8169
:1018900028173907E1F60F900F900F900F900F90D7
:1018A000CF91DF9108951F920F920FB60F921124DE
:1018B0002F933F934F935F936F937F938F939F9358
:1018C000AF93BF93EF93FF93DF93CF93CDB7DEB783
:1018D0008091960390919703009729F0E0919603E9
:1018E000F09197030995CF91DF91FF91EF91BF910F
:1018F000AF919F918F917F916F915F914F913F91A8
:101900002F910F900FBE0F901F9018951F920F925E
:101910000FB60F9211242F933F934F935F936F93C2
:101920007F938F939F93AF93BF93EF93FF93DF9337
:10193000CF93CDB7DEB7809198039091990300972C
:1019400029F0E0919803F09199030995CF91DF91E7
:10195000FF91EF91BF91AF919F918F917F916F9187
:101960005F914F913F912F910F900FBE0F901F905D
:101970001895DF93CF93CDB7DEB7ADE2B0E0EDE2DF
:10198000F0E0808180618C93ADE2B0E0EDE2F0E0C8
:10199000808180648C93CF91DF910895DF93CF9302
:1019A000CDB7DEB781E064E040E00E947F0D81E0CA
:1019B00065E040E00E947F0D81E065E041E00E942B
:1019C000710E81E066E041E00E947F0D81E067E0FA
:1019D00040E00E947F0D81E067E041E00E94710ECF
:1019E000ADE2B0E0EDE2F0E080818F7E8C93ADE27D
:1019F000B0E0EDE2F0E0808180648C93CF91DF91E4
:101A00000895DF93CF930F92CDB7DEB78983EFE2CE
:101A1000F0E089818083EEE2F0E080818823DCF7CA
:101A2000EFE2F0E080810F90CF91DF910895DF9396
:101A3000CF930F92CDB7DEB78983EFE2F0E08981D3
:101A40008083EEE2F0E080818823DCF70F90CF9175
:101A5000DF910895DF93CF93CDB7DEB7EEE2F0E0EC
:101A600080818823DCF7EFE2F0E08081CF91DF9185
:101A70000895DF93CF93CDB7DEB7AFE5B0E0EFE5E4
:101A8000F0E0808180688C93CF91DF910895DF939F
:101A9000CF93CDB7DEB7AFE5B0E0EFE5F0E0808102
:101AA0008F778C93CF91DF910895DF93CF93CDB74C
:101AB000DEB7A5E5B0E0E5E5F0E080818E7F8C93B0
:101AC000A5E5B0E0E5E5F0E080818D7F8C93ABE5A6
:101AD000B0E0EBE5F0E0808180648C93CF91DF9102
:101AE0000895DF93CF93CDB7DEB7CF91DF910895FF
:101AF000DF93CF93CDB7DEB7CF91DF910895DF931A
:101B0000CF9300D000D00F92CDB7DEB789836A8320
:101B10004B838981282F30E03D832C838C819D81EC
:101B20008130910509F447C02C813D812230310577
:101B30002CF48C819D81009771F0CBC02C813D816C
:101B40002230310509F467C08C819D818330910575
:101B500009F491C0BEC08B818823A9F4AAE3B0E048
:101B6000EAE3F0E08081482F8A81282F30E081E08D
:101B700090E0022E02C0880F991F0A94E2F7809528
:101B800084238C93A6C08B81813009F0A2C0AAE384
:101B9000B0E0EAE3F0E08081482F8A81282F30E02E
:101BA00081E090E0022E02C0880F991F0A94E2F7AC
:101BB000842B8C938EC08B818823A9F4A7E3B0E09B
:101BC000E7E3F0E08081482F8A81282F30E081E030
:101BD00090E0022E02C0880F991F0A94E2F78095C8
:101BE00084238C9376C08B81813009F072C0A7E387
:101BF000B0E0E7E3F0E08081482F8A81282F30E0D1
:101C000081E090E0022E02C0880F991F0A94E2F74B
:101C1000842B8C935EC08B818823A9F4A4E3B0E06D
:101C2000E4E3F0E08081482F8A81282F30E081E0D2
:101C300090E0022E02C0880F991F0A94E2F7809567
:101C400084238C9346C08B81813009F042C0A4E389
:101C5000B0E0E4E3F0E08081482F8A81282F30E073
:101C600081E090E0022E02C0880F991F0A94E2F7EB
:101C7000842B8C932EC08B818823A9F4A1E3B0E040
:101C8000E1E3F0E08081482F8A81282F30E081E075
:101C900090E0022E02C0880F991F0A94E2F7809507
:101CA00084238C9316C08B81813099F4A1E3B0E03A
:101CB000E1E3F0E08081482F8A81282F30E081E045
:101CC00090E0022E02C0880F991F0A94E2F7842B3D
:101CD0008C930F900F900F900F900F90CF91DF91FA
:101CE0000895DF93CF9300D000D00F92CDB7DEB729
:101CF00089836A834B838981282F30E03D832C833D
:101D00008C819D818130910509F447C02C813D81F2
:101D1000223031052CF48C819D81009771F0CBC06D
:101D20002C813D812230310509F467C08C819D8171
:101D30008330910509F491C0BEC08B818823A9F43A
:101D4000ABE3B0E0EBE3F0E08081482F8A81282FFD
:101D500030E081E090E0022E02C0880F991F0A94C3
:101D6000E2F7809584238C93A6C08B81813009F0A3
:101D7000A2C0ABE3B0E0EBE3F0E08081482F8A81C2
:101D8000282F30E081E090E0022E02C0880F991FDA
:101D90000A94E2F7842B8C938EC08B818823A9F45C
:101DA000A8E3B0E0E8E3F0E08081482F8A81282FA3
:101DB00030E081E090E0022E02C0880F991F0A9463
:101DC000E2F7809584238C9376C08B81813009F073
:101DD00072C0A8E3B0E0E8E3F0E08081482F8A8198
:101DE000282F30E081E090E0022E02C0880F991F7A
:101DF0000A94E2F7842B8C935EC08B818823A9F42C
:101E0000A5E3B0E0E5E3F0E08081482F8A81282F48
:101E100030E081E090E0022E02C0880F991F0A9402
:101E2000E2F7809584238C9346C08B81813009F042
:101E300042C0A5E3B0E0E5E3F0E08081482F8A816D
:101E4000282F30E081E090E0022E02C0880F991F19
:101E50000A94E2F7842B8C932EC08B818823A9F4FB
:101E6000A2E3B0E0E2E3F0E08081482F8A81282FEE
:101E700030E081E090E0022E02C0880F991F0A94A2
:101E8000E2F7809584238C9316C08B81813099F47E
:101E9000A2E3B0E0E2E3F0E08081482F8A81282FBE
:101EA00030E081E090E0022E02C0880F991F0A9472
:101EB000E2F7842B8C930F900F900F900F900F9060
:101EC000CF91DF910895DF93CF9300D000D00F9290
:101ED000CDB7DEB789836A838981282F30E03D83BF
:101EE0002C834C815D814130510549F18C819D816C
:101EF0008230910534F42C813D812115310561F04A
:101F000057C04C815D814230510561F18C819D81CA
:101F100083309105D1F14CC0E9E3F0E08081282FB6
:101F200030E08A81882F90E0A90102C0559547953D
:101F30008A95E2F7CA01582F51705B833BC0E6E3F4
:101F4000F0E08081282F30E08A81882F90E0A9017D
:101F500002C0559547958A95E2F7CA01582F5170EE
:101F60005B8328C0E3E3F0E08081282F30E08A81A2
:101F7000882F90E0A90102C0559547958A95E2F710
:101F8000CA01582F51705B8315C0E0E3F0E08081F7
:101F9000282F30E08A81882F90E0A90102C0559552
:101FA00047958A95E2F7CA01582F51705B8302C0AA
:101FB00082E08B838B810F900F900F900F900F908A
:101FC000CF91DF910895DF93CF9300D000D0CDB7AC
:101FD000DEB789836A838981282F30E03C832B8395
:101FE0008B819C8181309105D1F02B813C81223005
:101FF00031052CF48B819C81009761F01EC02B81F0
:102000003C812230310581F08B819C8183309105A8
:1020100081F013C0EAE3F0E08A8180830EC0E7E339
:10202000F0E08A81808309C0E4E3F0E08A81808364
:1020300004C0E1E3F0E08A8180830F900F900F905D
:102040000F90CF91DF910895DF93CF9300D000D010
:10205000CDB7DEB789836A838981282F30E03C833E
:102060002B838B819C8181309105D1F02B813C8128
:10207000223031052CF48B819C81009761F01EC0C9
:102080002B813C812230310581F08B819C81833012
:10209000910581F013C0EBE3F0E08A8180830EC0EC
:1020A000E8E3F0E08A81808309C0E5E3F0E08A811B
:1020B000808304C0E2E3F0E08A8180830F900F9078
:1020C0000F900F90CF91DF910895DF93CF9300D0C1
:1020D00000D0CDB7DEB789838981282F30E03C83DB
:1020E0002B838B819C8181309105D1F02B813C81A8
:1020F000223031052CF48B819C81009761F01FC048
:102100002B813C812230310581F08B819C81833091
:10211000910581F014C0EBE3F0E090819A8311C047
:10212000E8E3F0E020812A830CC0E5E3F0E03081B1
:102130003A8307C0E2E3F0E080818A8302C090E145
:102140009A838A810F900F900F900F90CF91DF911B
:102150000895DF93CF93CDB7DEB7A7E2B0E0E7E213
:10216000F0E0808180648C93A7E2B0E0E7E2F0E0E9
:1021700080818F778C93A6E2B0E0E6E2F0E0808188
:10218000887F8C93A6E2B0E0E6E2F0E08081876091
:102190008C93A6E2B0E0E6E2F0E0808180688C9368
:1021A000CF91DF910895DF93CF930F92CDB7DEB734
:1021B0008983A7E2B0E0E7E2F0E08081807E8C9343
:1021C000A7E2B0E0E7E2F0E090818981892B8C936F
:1021D000A6E2B0E0E6E2F0E0808180648C93E6E283
:1021E000F0E0808182958F70882F90E081709070F0
:1021F0000097A9F3A6E2B0E0E6E2F0E0808180611A
:102200008C93E4E2F0E0808191810F90CF91DF9197
:102210000895DF93CF93CDB7DEB70E94CE0C0E9416
:10222000AB0B81E00E94FA1282E00E94FA120E9437
:1022300070080E9418180E94EB140E94460A8DEE46
:1022400098E10E94820ACF91DF910895DF93CF93A6
:10225000CDB7DEB729970FB6F894DEBF0FBECDBF5E
:1022600081E061E00E94FD1180E690E061E00E9463
:102270008B1281E060E041E00E94C6128EE690E0A1
:1022800061E00E948B1282E060E041E00E94C61291
:1022900083E790E061E00E948B1281E064E041E01E
:1022A0000E94C61281E00E945414DC01CB018D8390
:1022B0009E83AF83B88782E066E041E00E94C61249
:1022C00081E00E945414DC01CB0189839A83AB83A3
:1022D000BC838D819E81AF81B88581309105A10538
:1022E000B10519F5209188033091890340918A0343
:1022F00050918B0389819A81AB81BC8182179307AE
:10230000A407B50791F481E061E00E94FD118AE71E
:1023100090E061E00E948B128EE591E00E941A0C21
:1023200010929A0381E0898734C080919A038230A9
:10233000B0F480919A038F5F80939A0381E061E00B
:102340000E94FD118CE890E061E00E948B1284EF06
:1023500091E00E941A0C0E94261189871AC081E020
:1023600061E00E94FD1187E990E061E00E948B121C
:1023700081E060E041E00E94C61284EA90E061E002
:102380000E948B1288E893E10E941A0C10929A0323
:102390001986898529960FB6F894DEBF0FBECDBF8A
:1023A000CF91DF910895DF93CF93CDB7DEB781E072
:1023B00061E00E94FD1185EB90E061E00E948B12CC
:1023C00081E00E945414DC01CB0180938803909338
:1023D0008903A0938A03B0938B0381E061E00E949C
:1023E000FD1180EC90E061E00E948B128EE591E09F
:1023F0000E941A0CCF91DF910895DF93CF9300D004
:10240000CDB7DEB789836A838A818130E9F483E0BE
:1024100065E040E00E94710E83E066E040E00E94CB
:10242000710E83E067E041E00E94710E80E06981F7
:102430000E94241083E067E040E00E94710E85E076
:1024400090E00E941A0C1FC08A818230E1F483E080
:1024500062E040E00E94710E83E063E040E00E9491
:10246000710E83E064E041E00E94710E82E06981B8
:102470000E94241083E064E040E00E94710E85E039
:1024800090E00E941A0C0F900F90CF91DF91089569
:10249000DF93CF9300D0CDB7DEB789836A838A817B
:1024A0008130C9F483E065E041E00E94710E83E071
:1024B00066E040E00E94710E83E067E041E00E9428
:1024C000710E80E069810E94241083E067E040E0A3
:1024D0000E94710E1BC08A818230C1F483E062E0E9
:1024E00041E00E94710E83E063E040E00E94710EC3
:1024F00083E064E041E00E94710E82E069810E9405
:10250000241083E064E040E00E94710E0F900F9071
:10251000CF91DF910895DF93CF93CDB7DEB72797A3
:102520000FB6F894DEBF0FBECDBF9E838D836F8341
:1025300019821A821B821C8216C029813A818D81E0
:102540009E81FC01E20FF31F80816F810E9448127F
:1025500089819A81AB81BC810196A11DB11D8983BE
:102560009A83AB83BC8329813A818D819E81FC0152
:10257000E20FF31F8081882301F727960FB6F894A6
:10258000DEBF0FBECDBFCF91DF910895DF93CF9314
:1025900000D000D0CDB7DEB78A836B834C8380E850
:1025A00089838A81882321F48B818058898314C090
:1025B0008A81813021F48B81805489830DC08A8186
:1025C000823021F48B818C56898306C08A818330C6
:1025D00019F48B818C5289838981806889838981F0
:1025E0006C810E94FD110F900F900F900F90CF9172
:1025F000DF910895DF93CF9300D0CDB7DEB78A8304
:1026000019828A818130B1F483E065E041E00E9463
:102610007F0D83E067E041E00E947F0D83E066E08C
:1026200041E00E947F0D80E06FEF0E94E30F8FE09A
:10263000898318C08A818230A9F483E062E041E096
:102640000E947F0D83E064E041E00E947F0D83E003
:1026500063E041E00E947F0D82E06FEF0E94E30F94
:102660008CE0898383E290E00E941A0C88E36A81FF
:102670000E94FD1181E090E00E941A0C89816A811C
:102680000E94FD1181E090E00E941A0C81E06A81B5
:102690000E94FD1182E090E00E941A0C86E06A819F
:1026A0000E94FD110F900F90CF91DF9108950F932D
:1026B0001F93DF93CF93CDB7DEB72E970FB6F89465
:1026C000DEBF0FBECDBF69877A878B879C875E8709
:1026D0004D871D821E821F82188683E190E0A0E054
:1026E000B0E089839A83AB83BC8329813A818D854D
:1026F0009E85FC01E20FF31F108289819A81AB81D4
:10270000BC810197A109B10989839A83AB83BC83FA
:1027100089859A85AB85BC85BB230CF04DC081E0D3
:1027200090E0A0E0B0E08D839E83AF83B887898579
:102730009A85AB85BC85B095A095909581959F4F66
:10274000AF4FBF4F89879A87AB87BC8735C0298138
:102750003A818D859E858C01020F131F89859A858C
:10276000AB85BC852AE030E040E050E0BC01CD0103
:102770000E94D819DC01CB01805DF801808389813A
:102780009A81AB81BC810197A109B10989839A83A0
:10279000AB83BC8389859A85AB85BC852AE030E014
:1027A00040E050E0BC01CD010E94D819DA01C90116
:1027B00089879A87AB87BC8789859A85AB85BC85D5
:1027C0000097A105B10519F68D819E81AF81B8856D
:1027D0000097A105B105A1F029813A818D859E85DB
:1027E000FC01E20FF31F8DE2808389819A81AB8126
:1027F000BC810197A109B10989839A83AB83BC830A
:1028000089819A81AB81BC810196A11DB11D89830B
:102810009A83AB83BC8329813A818D859E85820F03
:10282000931F2E960FB6F894DEBF0FBECDBFCF918B
:10283000DF911F910F910895DF93CF93CDB7DEB74E
:102840006B970FB6F894DEBF0FBECDBF6F8B788F3E
:10285000898F9A8F4B8F8F89988DA98DBA8D00970C
:10286000A105B105A1F08F89988DA98DBA8D9E0122
:102870002D5F3F4FBC01CD01A9010E9457139A83E0
:10288000898389819A816B8D0E948B1204C080E3B9
:102890006B8D0E9448126B960FB6F894DEBF0FBE88
:1028A000CDBFCF91DF910895DF93CF93CDB7DEB742
:1028B00027970FB6F894DEBF0FBECDBF8F838FEF83
:1028C0008E8319820E942A0D8E838E818B3621F48D
:1028D0008981882309F070C08E818B3609F442C04B
:1028E0008E81843609F43EC08981882321F18A8152
:1028F0009B81AC81BD812AE030E040E050E0BC012A
:10290000CD010E94B919DC01CB018A839B83AC8382
:10291000BD838E81282F30E040E050E08A819B818A
:10292000AC81BD81820F931FA41FB51F8A839B8337
:10293000AC83BD8309C08E81882F90E0A0E0B0E019
:102940008A839B83AC83BD8389818F5F89838E81DA
:10295000882F90E0A0E0B0E0BC01CD014F810E9443
:102960001C14B0CF8981882309F4ACCF8E818436C2
:1029700009F0A8CF80E16F810E94FD1180E26F8194
:102980000E94481280E16F810E94FD118A819B8123
:10299000AC81BD812AE030E040E050E0BC01CD01D7
:1029A0000E94D819DA01C9018A839B83AC83BD8355
:1029B00089818150898386CF8A819B81AC81BD8149
:1029C000BC01CD0127960FB6F894DEBF0FBECDBF78
:1029D000CF91DF910895DF93CF93CDB7DEB781E03C
:1029E00062E00E94FD1182ED90E062E00E948B1295
:1029F00080E06AE042E00E94C61287ED90E062E06B
:102A00000E948B1281E060E042E00E94C61281EEDB
:102A100090E062E00E948B1281E06AE042E00E9456
:102A2000C6128BEE90E062E00E948B1282E060E0C2
:102A300042E00E94C61285EF90E062E00E948B1295
:102A4000CF91DF910895DF93CF9300D000D00F9204
:102A5000CDB7DEB71982B9C081E061E00E94FD11F7
:102A600061E070E080E090E041E00E941C148FEF94
:102A700090E061E00E948B1280E069E041E00E94FA
:102A8000C61262E070E080E090E041E00E941C1419
:102A900083E091E061E00E948B1281E060E041E020
:102AA0000E94C61263E070E080E090E041E00E9486
:102AB0001C1488E091E061E00E948B1281E069E0E3
:102AC00041E00E94C61264E070E080E090E041E0E6
:102AD0000E941C148EE091E061E00E948B1282E063
:102AE00060E041E00E94C61265E070E080E090E0A6
:102AF00041E00E941C1485E191E061E00E948B128C
:102B000083E060E041E00E94C6128DE191E061E067
:102B10000E948B1281E00E9454146A837B838C8311
:102B20009D838A819B81AC81BD8183309105A10504
:102B3000B105A9F18A819B81AC81BD818430910569
:102B4000A105B1059CF48A819B81AC81BD81813056
:102B50009105A105B105E9F08A819B81AC81BD8118
:102B600082309105A105B105B9F022C08A819B810F
:102B7000AC81BD8184309105A105B10599F08A81B0
:102B80009B81AC81BD8185309105A105B10569F0BE
:102B90000FC00E94F11519C00E94591616C00E945C
:102BA000C61613C00E94331710C081E089830DC080
:102BB00081E061E00E94FD118BE291E061E00E9402
:102BC0008B128EE591E00E941A0C8981882309F40A
:102BD00043CF0F900F900F900F900F90CF91DF91F8
:102BE0000895DF93CF9300D000D00F92CDB7DEB71A
:102BF0001982198281E061E00E94FD118BE391E06E
:102C000061E00E948B1281E060E041E00E94C61208
:102C100080E591E061E00E948B1281E069E041E093
:102C20000E94C61286E591E061E00E948B1282E06C
:102C300060E041E00E94C6128DE191E061E00E94F7
:102C40008B1281E00E9454146A837B838C839D8362
:102C50008A819B81AC81BD8181309105A105B1053F
:102C600051F08A819B81AC81BD8182309105A105A3
:102C7000B10599F003C00E94B7180FC081E08983A5
:102C800081E061E00E94FD118BE291E061E00E9431
:102C90008B128EE591E00E941A0C8981882309F03D
:102CA000A8CF0F900F900F900F900F90CF91DF91C2
:102CB0000895DF93CF9300D000D00F92CDB7DEB749
:102CC0001982198281E061E00E94FD118BE591E09B
:102CD00061E00E948B1281E060E041E00E94C61238
:102CE00080E591E061E00E948B1281E069E041E0C3
:102CF0000E94C61286E591E061E00E948B1282E09C
:102D000060E041E00E94C6128DE191E061E00E9426
:102D10008B1281E00E9454146A837B838C839D8391
:102D20008A819B81AC81BD8181309105A105B1056E
:102D300051F08A819B81AC81BD8182309105A105D2
:102D4000B10529F008C081E00E94611813C080E03D
:102D50000E9461180FC081E0898381E061E00E94D8
:102D6000FD118BE291E061E00E948B128EE591E013
:102D70000E941A0C8981882309F0A3CF0F900F902D
:102D80000F900F900F90CF91DF910895DF93CF9325
:102D900000D000D00F92CDB7DEB71982198281E042
:102DA00061E00E94FD118EE691E061E00E948B12CD
:102DB00081E060E041E00E94C6128BE791E061E0B3
:102DC0000E948B1282E060E041E00E94C61287E818
:102DD00091E061E00E948B1283E060E041E00E949C
:102DE000C6128DE191E061E00E948B1281E00E94A9
:102DF00054146A837B838C839D838A819B81AC81FD
:102E0000BD8181309105A105B10551F08A819B8179
:102E1000AC81BD8182309105A105B10529F008C0C2
:102E200081E00E942E1813C080E00E942E180FC06F
:102E300081E0898381E061E00E94FD118BE291E0F5
:102E400061E00E948B128EE591E00E941A0C89814C
:102E5000882309F0A3CF0F900F900F900F900F9041
:102E6000CF91DF910895DF93CF9300D000D00F92E0
:102E7000CDB7DEB71982198281E061E00E94FD11B1
:102E800084E991E061E00E948B1281E060E041E022
:102E90000E94C61280E591E061E00E948B1281E001
:102EA00069E041E00E94C61286E591E061E00E947F
:102EB0008B1282E060E041E00E94C6128DE191E059
:102EC00061E00E948B1281E00E9454146A837B832C
:102ED0008C839D838A819B81AC81BD8181309105EA
:102EE000A105B10551F08A819B81AC81BD81823001
:102EF0009105A105B10529F008C081E00E948B1859
:102F000013C080E00E948B180FC081E0898381E0AC
:102F100061E00E94FD118BE291E061E00E948B1262
:102F20008EE591E00E941A0C8981882309F0A3CFD5
:102F30000F900F900F900F900F90CF91DF91089509
:102F4000DF93CF9300D000D00F92CDB7DEB71982B8
:102F5000198281E061E00E94FD1189EA91E061E05F
:102F60000E948B1281E060E041E00E94C6128BEB70
:102F700091E061E00E948B1282E060E041E00E94FB
:102F8000C6128DEC91E061E00E948B1283E060E05C
:102F900041E00E94C6128DE191E061E00E948B1237
:102FA00081E00E9454146A837B838C839D838A8191
:102FB0009B81AC81BD8182309105A105B105B9F03D
:102FC0008A819B81AC81BD8183309105A105B105CA
:102FD00089F08A819B81AC81BD8181309105A105F9
:102FE000B10559F40E94231581E0898315C00E9420
:102FF000D31112C00E9418180FC081E0898381E0AC
:1030000061E00E94FD118BE291E061E00E948B1271
:103010008EE591E00E941A0C8981882309F098CFEF
:103020000F900F900F900F900F90CF91DF91089518
:10303000DF93CF93CDB7DEB780919E038E7F8093D1
:103040009E0380919E038D7F80939E0380919E03BB
:103050008B7F80939E03CF91DF910895DF93CF9371
:103060000F92CDB7DEB7898381E061E00E94FD1148
:103070008981882351F081EE94E00E94990B86EDBE
:1030800091E061E00E948B1209C084E891E00E9407
:10309000990B83EE91E061E00E948B12898181702F
:1030A0008170982F990F80919E038D7F892B80933B
:1030B0009E038EE591E00E941A0C0F90CF91DF9154
:1030C0000895DF93CF930F92CDB7DEB7898381E068
:1030D00061E00E94FD118981882331F080EF91E049
:1030E00061E00E948B1205C08FEF91E061E00E94C9
:1030F0008B1289818170982F917080919E038E7FB1
:10310000892B80939E038EE591E00E941A0C0F900C
:10311000CF91DF910895DF93CF930F92CDB7DEB7B4
:10312000898381E061E00E94FD118981882331F06B
:103130008FE092E061E00E948B1205C080E292E095
:1031400061E00E948B12898181708170982F990FA4
:10315000990F80919E038B7F892B80939E038EE530
:1031600091E00E941A0C0F90CF91DF910895DF93A8
:10317000CF930F92CDB7DEB7198281E061E00E9454
:10318000FD1182E392E061E00E948B1281E00E94D7
:103190005414DC01CB01898389818F3168F48981E2
:1031A0008093910381E061E00E94FD1182E492E04E
:1031B00061E00E948B1209C081E061E00E94FD1174
:1031C00085E592E061E00E948B128EE591E00E941D
:1031D0001A0C0F90CF91DF910895DF93CF93CDB765
:1031E000DEB72A970FB6F894DEBF0FBECDBF809131
:1031F0009E038A8380919D038823C9F480919C0358
:10320000813041F48A81882F90E00E94F009109269
:103210009C0309C080919103882F90E00E94F009DF
:1032200081E080939C0381E080939D038CC00E9489
:103230000C0A898380919B03882399F480E066E0DF
:1032400042E00E94C6128981882F90E0A0E0B0E0A1
:10325000BC01CD0142E00E941C1481E080939B03DD
:1032600070C080E060E142E00E94C6128981882F30
:1032700090E081709070882329F08AE692E09A8726
:10328000898704C08EE692E09A87898789859A8526
:1032900062E00E948B1281E066E042E00E94C6126A
:1032A00089818695882F90E081709070882329F01D
:1032B0008AE692E098878F8304C08EE692E0988732
:1032C0008F838F81988562E00E948B1281E060E19C
:1032D00042E00E94C612898186958695882F90E0EB
:1032E00081709070882329F08AE692E09E838D8316
:1032F00004C08EE692E09E838D838D819E8162E084
:103300000E948B1282E066E042E00E94C612898130
:10331000869586958695882F90E081709070882399
:1033200029F08AE692E09C838B8304C08EE692E0CB
:103330009C838B838B819C8162E00E948B12109214
:103340009B0310929D032A960FB6F894DEBF0FBE22
:10335000CDBFCF91DF910895DF93CF93CDB7DEB787
:103360000E9409110E9426118823E1F30E94A017F0
:10337000F9CF629FD001739FF001829FE00DF11D94
:10338000649FE00DF11D929FF00D839FF00D749FDF
:10339000F00D659FF00D9927729FB00DE11DF91F8B
:1033A000639FB00DE11DF91FBD01CF0111240895E8
:1033B00097FB092E05260ED057FD04D014D00AD055
:1033C000001C38F450954095309521953F4F4F4F54
:1033D0005F4F0895F6F790958095709561957F4FB2
:1033E0008F4F9F4F0895A1E21A2EAA1BBB1BFD0110
:1033F0000DC0AA1FBB1FEE1FFF1FA217B307E407D4
:10340000F50720F0A21BB30BE40BF50B661F771F2B
:10341000881F991F1A9469F760957095809590950B
:103420009B01AC01BD01CF0108952F923F924F92B5
:103430005F926F927F928F929F92AF92BF92CF9244
:10344000DF92EF92FF920F931F93CF93DF93CDB74D
:10345000DEB7CA1BDB0B0FB6F894DEBF0FBECDBFC5
:1034600009942A88398848885F846E847D848C8496
:103470009B84AA84B984C884DF80EE80FD800C819F
:103480001B81AA81B981CE0FD11D0FB6F894DEBF82
:0C3490000FBECDBFED010895F894FFCFF2
:10349C00504C45415345204C4F47494E210049441F
:1034AC003A2000506173733A20004C4F47494E202C
:1034BC005355434345535346554C210054525920C0
:1034CC00414741494E21004C4F47494E2046414906
:1034DC004C45440054525920414741494E204C41DF
:1034EC0054455221004E455720504153533A200029
:1034FC0050415353574F5244205550444154454426
:10350C00210054454D50004C44522020204F46463B
:10351C0000444F4F5220204F4646004D55534943CF
:10352C00204F464600534D4F4B45204F4646002DED
:10353C004143002D4C4452002D444F4F52002D4D11
:10354C0055534943002D52455455524E00594F5531
:10355C00522043484F4943453A2000494E56414C6E
:10356C0049442043484F49434521004348414E4775
:10357C0045204143205448524553484F4C443F004A
:10358C00312D59455300322D4E4F00454E41424C82
:10359C0045204C44522053595354454D3F00444F01
:1035AC004F5220434F4E54524F4C00312D4F5045EB
:1035BC004E20444F4F5200322D434C4F5345204424
:1035CC004F4F5200454E41424C45204D55534943B7
:1035DC002053595354454D3F00312D444953504CC1
:1035EC004159204F5054494F4E5300322D434841BE
:1035FC004E47452050415353574F524400332D4CA6
:10360C004F474F555400444F4F52204F50454E4555
:10361C00442100444F4F5220434C4F53454421000A
:10362C004C4452205455524E4544204F4E21004C90
:10363C004452205455524E4544204F464621004D8D
:10364C0055534943205455524E4544204F4E21006A
:10365C004D55534943205455524E4544204F4646F0
:10366C0021004E4557205448524553484F4C443A3C
:10367C0020005448524553484F4C44205550444127
:10368C005445442100494E434F5252454354205413
:10369C0048524553484F4C4421004F4E20004F4652
:1036AC0046000000000000000000000102020303BD
:1036BC0003030404040404040404050505050505BA
:1036CC000505050505050505050506060606060698
:1036DC00060606060606060606060606060606067E
:1036EC000606060606060606060607070707070768
:1036FC00070707070707070707070707070707074E
:10370C00070707070707070707070707070707073D
:10371C00070707070707070707070707070707072D
:10372C000707070707070707070708080808080817
:10373C0008080808080808080808080808080808FD
:10374C0008080808080808080808080808080808ED
:10375C0008080808080808080808080808080808DD
:10376C0008080808080808080808080808080808CD
:10377C0008080808080808080808080808080808BD
:10378C0008080808080808080808080808080808AD
:10379C00080808080808080808080808080808089D
:1037AC00080808080808080808080000010880250F
:1037BC0040420F00000000007B0000001E000000D3
:0237CC00001EDD
:00000001FF
